{
    "contractName": "MarvinSale",
    "abi": [
        {
            "anonymous": false,
            "inputs": [
                {
                    "indexed": true,
                    "internalType": "address",
                    "name": "previousOwner",
                    "type": "address"
                },
                {
                    "indexed": true,
                    "internalType": "address",
                    "name": "newOwner",
                    "type": "address"
                }
            ],
            "name": "OwnershipTransferred",
            "type": "event"
        },
        {
            "inputs": [],
            "name": "WETHAddr",
            "outputs": [
                {
                    "internalType": "address",
                    "name": "",
                    "type": "address"
                }
            ],
            "stateMutability": "view",
            "type": "function"
        },
        {
            "inputs": [],
            "name": "discount",
            "outputs": [
                {
                    "internalType": "uint256",
                    "name": "",
                    "type": "uint256"
                }
            ],
            "stateMutability": "view",
            "type": "function"
        },
        {
            "inputs": [],
            "name": "isPaused",
            "outputs": [
                {
                    "internalType": "bool",
                    "name": "",
                    "type": "bool"
                }
            ],
            "stateMutability": "view",
            "type": "function"
        },
        {
            "inputs": [],
            "name": "isSaleOpen",
            "outputs": [
                {
                    "internalType": "bool",
                    "name": "",
                    "type": "bool"
                }
            ],
            "stateMutability": "view",
            "type": "function"
        },
        {
            "inputs": [],
            "name": "marvinToken",
            "outputs": [
                {
                    "internalType": "address",
                    "name": "",
                    "type": "address"
                }
            ],
            "stateMutability": "view",
            "type": "function"
        },
        {
            "inputs": [],
            "name": "owner",
            "outputs": [
                {
                    "internalType": "address",
                    "name": "",
                    "type": "address"
                }
            ],
            "stateMutability": "view",
            "type": "function"
        },
        {
            "inputs": [],
            "name": "pancakeRouter",
            "outputs": [
                {
                    "internalType": "address",
                    "name": "",
                    "type": "address"
                }
            ],
            "stateMutability": "view",
            "type": "function"
        },
        {
            "inputs": [],
            "name": "renounceOwnership",
            "outputs": [],
            "stateMutability": "nonpayable",
            "type": "function"
        },
        {
            "inputs": [
                {
                    "internalType": "address",
                    "name": "newOwner",
                    "type": "address"
                }
            ],
            "name": "transferOwnership",
            "outputs": [],
            "stateMutability": "nonpayable",
            "type": "function"
        },
        {
            "inputs": [
                {
                    "internalType": "uint256",
                    "name": "bnbValue",
                    "type": "uint256"
                }
            ],
            "name": "getEstimatedMarvin",
            "outputs": [
                {
                    "internalType": "uint256",
                    "name": "",
                    "type": "uint256"
                }
            ],
            "stateMutability": "view",
            "type": "function"
        },
        {
            "inputs": [
                {
                    "internalType": "address",
                    "name": "to",
                    "type": "address"
                }
            ],
            "name": "withdrawMarvin",
            "outputs": [],
            "stateMutability": "nonpayable",
            "type": "function"
        },
        {
            "inputs": [
                {
                    "internalType": "address",
                    "name": "to",
                    "type": "address"
                }
            ],
            "name": "withdrawBNB",
            "outputs": [],
            "stateMutability": "nonpayable",
            "type": "function"
        },
        {
            "inputs": [],
            "name": "buyMarvinToken",
            "outputs": [],
            "stateMutability": "payable",
            "type": "function"
        },
        {
            "inputs": [],
            "name": "setSaleOpen",
            "outputs": [],
            "stateMutability": "nonpayable",
            "type": "function"
        },
        {
            "inputs": [],
            "name": "pauseSale",
            "outputs": [],
            "stateMutability": "nonpayable",
            "type": "function"
        },
        {
            "inputs": [],
            "name": "resumeSale",
            "outputs": [],
            "stateMutability": "nonpayable",
            "type": "function"
        },
        {
            "inputs": [],
            "name": "getmarvinBalance",
            "outputs": [
                {
                    "internalType": "uint256",
                    "name": "",
                    "type": "uint256"
                }
            ],
            "stateMutability": "view",
            "type": "function"
        },
        {
            "inputs": [],
            "name": "getUserMarvinBalance",
            "outputs": [
                {
                    "internalType": "uint256",
                    "name": "",
                    "type": "uint256"
                }
            ],
            "stateMutability": "view",
            "type": "function"
        },
        {
            "inputs": [],
            "name": "getBnbBalance",
            "outputs": [
                {
                    "internalType": "uint256",
                    "name": "",
                    "type": "uint256"
                }
            ],
            "stateMutability": "view",
            "type": "function"
        }
    ],
    "bytecode": "0x6080604052737a250d5630b4cf539739df2c5dacb4c659f2488d600160006101000a81548173ffffffffffffffffffffffffffffffffffffffff021916908373ffffffffffffffffffffffffffffffffffffffff16021790555073b4fbf271143f4fbf7b91a5ded31805e42b2208d6600260006101000a81548173ffffffffffffffffffffffffffffffffffffffff021916908373ffffffffffffffffffffffffffffffffffffffff1602179055507396c0ca1a8e9d5903d9d748533a737079308c70a6600360006101000a81548173ffffffffffffffffffffffffffffffffffffffff021916908373ffffffffffffffffffffffffffffffffffffffff160217905550600f6004556000600560006101000a81548160ff0219169083151502179055506000600560016101000a81548160ff02191690831515021790555034801561014a57600080fd5b5061016761015c61016c60201b60201c565b61017460201b60201c565b610238565b600033905090565b60008060009054906101000a900473ffffffffffffffffffffffffffffffffffffffff169050816000806101000a81548173ffffffffffffffffffffffffffffffffffffffff021916908373ffffffffffffffffffffffffffffffffffffffff1602179055508173ffffffffffffffffffffffffffffffffffffffff168173ffffffffffffffffffffffffffffffffffffffff167f8be0079c531659141344cd1fd0a4f28419497f9722a3daafe3b4186f6b6457e060405160405180910390a35050565b611ce1806102476000396000f3fe6080604052600436106101145760003560e01c80636b6f4a9d116100a0578063abdc380811610064578063abdc380814610310578063b187bd261461033b578063b954af3914610366578063c21ebd0714610391578063f2fde38b146103bc57610114565b80636b6f4a9d1461023d578063715018a614610268578063726094711461027f5780638170ea45146102a85780638da5cb5b146102e557610114565b80632ed70407116100e75780632ed704071461019057806333e364cb146101bb57806333f5bf31146101d257806355367ba9146101fd57806361c3cb0d1461021457610114565b806319dad680146101195780631a081330146101305780632198f9941461015b578063266c25fb14610186575b600080fd5b34801561012557600080fd5b5061012e6103e5565b005b34801561013c57600080fd5b5061014561047e565b604051610152919061126f565b60405180910390f35b34801561016757600080fd5b50610170610491565b60405161017d91906112a3565b60405180910390f35b61018e610539565b005b34801561019c57600080fd5b506101a561078e565b6040516101b291906112ff565b60405180910390f35b3480156101c757600080fd5b506101d06107b4565b005b3480156101de57600080fd5b506101e761084d565b6040516101f491906112a3565b60405180910390f35b34801561020957600080fd5b50610212610855565b005b34801561022057600080fd5b5061023b6004803603810190610236919061135a565b6108ee565b005b34801561024957600080fd5b50610252610afd565b60405161025f91906112a3565b60405180910390f35b34801561027457600080fd5b5061027d610b03565b005b34801561028b57600080fd5b506102a660048036038101906102a1919061135a565b610b8b565b005b3480156102b457600080fd5b506102cf60048036038101906102ca91906113b3565b610cc1565b6040516102dc91906112a3565b60405180910390f35b3480156102f157600080fd5b506102fa610f1e565b60405161030791906112ff565b60405180910390f35b34801561031c57600080fd5b50610325610f47565b60405161033291906112ff565b60405180910390f35b34801561034757600080fd5b50610350610f6d565b60405161035d919061126f565b60405180910390f35b34801561037257600080fd5b5061037b610f80565b60405161038891906112a3565b60405180910390f35b34801561039d57600080fd5b506103a6611028565b6040516103b391906112ff565b60405180910390f35b3480156103c857600080fd5b506103e360048036038101906103de919061135a565b61104e565b005b6103ed611146565b73ffffffffffffffffffffffffffffffffffffffff1661040b610f1e565b73ffffffffffffffffffffffffffffffffffffffff1614610461576040517f08c379a00000000000000000000000000000000000000000000000000000000081526004016104589061143d565b60405180910390fd5b6001600560006101000a81548160ff021916908315150217905550565b600560009054906101000a900460ff1681565b600080600360009054906101000a900473ffffffffffffffffffffffffffffffffffffffff1690508073ffffffffffffffffffffffffffffffffffffffff166370a08231306040518263ffffffff1660e01b81526004016104f291906112ff565b602060405180830381865afa15801561050f573d6000803e3d6000fd5b505050506040513d601f19601f820116820180604052508101906105339190611472565b91505090565b6000341161057c576040517f08c379a0000000000000000000000000000000000000000000000000000000008152600401610573906114eb565b60405180910390fd5b600560009054906101000a900460ff166105cb576040517f08c379a00000000000000000000000000000000000000000000000000000000081526004016105c290611557565b60405180910390fd5b600560019054906101000a900460ff161561061b576040517f08c379a0000000000000000000000000000000000000000000000000000000008152600401610612906115c3565b60405180910390fd5b6000600360009054906101000a900473ffffffffffffffffffffffffffffffffffffffff169050600061064d34610cc1565b90508173ffffffffffffffffffffffffffffffffffffffff166370a08231306040518263ffffffff1660e01b815260040161068891906112ff565b602060405180830381865afa1580156106a5573d6000803e3d6000fd5b505050506040513d601f19601f820116820180604052508101906106c99190611472565b81111561070b576040517f08c379a000000000000000000000000000000000000000000000000000000000815260040161070290611655565b60405180910390fd5b8173ffffffffffffffffffffffffffffffffffffffff1663a9059cbb33836040518363ffffffff1660e01b8152600401610746929190611675565b6020604051808303816000875af1158015610765573d6000803e3d6000fd5b505050506040513d601f19601f8201168201806040525081019061078991906116ca565b505050565b600360009054906101000a900473ffffffffffffffffffffffffffffffffffffffff1681565b6107bc611146565b73ffffffffffffffffffffffffffffffffffffffff166107da610f1e565b73ffffffffffffffffffffffffffffffffffffffff1614610830576040517f08c379a00000000000000000000000000000000000000000000000000000000081526004016108279061143d565b60405180910390fd5b6000600560016101000a81548160ff021916908315150217905550565b600047905090565b61085d611146565b73ffffffffffffffffffffffffffffffffffffffff1661087b610f1e565b73ffffffffffffffffffffffffffffffffffffffff16146108d1576040517f08c379a00000000000000000000000000000000000000000000000000000000081526004016108c89061143d565b60405180910390fd5b6001600560016101000a81548160ff021916908315150217905550565b6108f6611146565b73ffffffffffffffffffffffffffffffffffffffff16610914610f1e565b73ffffffffffffffffffffffffffffffffffffffff161461096a576040517f08c379a00000000000000000000000000000000000000000000000000000000081526004016109619061143d565b60405180910390fd5b600073ffffffffffffffffffffffffffffffffffffffff168173ffffffffffffffffffffffffffffffffffffffff1614156109da576040517f08c379a00000000000000000000000000000000000000000000000000000000081526004016109d190611769565b60405180910390fd5b6000600360009054906101000a900473ffffffffffffffffffffffffffffffffffffffff1690508073ffffffffffffffffffffffffffffffffffffffff1663a9059cbb838373ffffffffffffffffffffffffffffffffffffffff166370a08231306040518263ffffffff1660e01b8152600401610a5791906112ff565b602060405180830381865afa158015610a74573d6000803e3d6000fd5b505050506040513d601f19601f82011682018060405250810190610a989190611472565b6040518363ffffffff1660e01b8152600401610ab5929190611675565b6020604051808303816000875af1158015610ad4573d6000803e3d6000fd5b505050506040513d601f19601f82011682018060405250810190610af891906116ca565b505050565b60045481565b610b0b611146565b73ffffffffffffffffffffffffffffffffffffffff16610b29610f1e565b73ffffffffffffffffffffffffffffffffffffffff1614610b7f576040517f08c379a0000000000000000000000000000000000000000000000000000000008152600401610b769061143d565b60405180910390fd5b610b89600061114e565b565b610b93611146565b73ffffffffffffffffffffffffffffffffffffffff16610bb1610f1e565b73ffffffffffffffffffffffffffffffffffffffff1614610c07576040517f08c379a0000000000000000000000000000000000000000000000000000000008152600401610bfe9061143d565b60405180910390fd5b600073ffffffffffffffffffffffffffffffffffffffff168173ffffffffffffffffffffffffffffffffffffffff161415610c77576040517f08c379a0000000000000000000000000000000000000000000000000000000008152600401610c6e906117fb565b60405180910390fd5b8073ffffffffffffffffffffffffffffffffffffffff166108fc479081150290604051600060405180830381858888f19350505050158015610cbd573d6000803e3d6000fd5b5050565b600080600160009054906101000a900473ffffffffffffffffffffffffffffffffffffffff1690506000600267ffffffffffffffff811115610d0657610d0561181b565b5b604051908082528060200260200182016040528015610d345781602001602082028036833780820191505090505b509050600260009054906101000a900473ffffffffffffffffffffffffffffffffffffffff1681600081518110610d6e57610d6d61184a565b5b602002602001019073ffffffffffffffffffffffffffffffffffffffff16908173ffffffffffffffffffffffffffffffffffffffff1681525050600360009054906101000a900473ffffffffffffffffffffffffffffffffffffffff1681600181518110610ddf57610dde61184a565b5b602002602001019073ffffffffffffffffffffffffffffffffffffffff16908173ffffffffffffffffffffffffffffffffffffffff168152505060008273ffffffffffffffffffffffffffffffffffffffff1663d06ca61f86846040518363ffffffff1660e01b8152600401610e56929190611937565b600060405180830381865afa158015610e73573d6000803e3d6000fd5b505050506040513d6000823e3d601f19601f82011682018060405250810190610e9c9190611a91565b90506000610ee36064610ed560045485600181518110610ebf57610ebe61184a565b5b602002602001015161121290919063ffffffff16565b61122890919063ffffffff16565b9050610f138183600181518110610efd57610efc61184a565b5b602002602001015161123e90919063ffffffff16565b945050505050919050565b60008060009054906101000a900473ffffffffffffffffffffffffffffffffffffffff16905090565b600260009054906101000a900473ffffffffffffffffffffffffffffffffffffffff1681565b600560019054906101000a900460ff1681565b600080600360009054906101000a900473ffffffffffffffffffffffffffffffffffffffff1690508073ffffffffffffffffffffffffffffffffffffffff166370a08231336040518263ffffffff1660e01b8152600401610fe191906112ff565b602060405180830381865afa158015610ffe573d6000803e3d6000fd5b505050506040513d601f19601f820116820180604052508101906110229190611472565b91505090565b600160009054906101000a900473ffffffffffffffffffffffffffffffffffffffff1681565b611056611146565b73ffffffffffffffffffffffffffffffffffffffff16611074610f1e565b73ffffffffffffffffffffffffffffffffffffffff16146110ca576040517f08c379a00000000000000000000000000000000000000000000000000000000081526004016110c19061143d565b60405180910390fd5b600073ffffffffffffffffffffffffffffffffffffffff168173ffffffffffffffffffffffffffffffffffffffff16141561113a576040517f08c379a000000000000000000000000000000000000000000000000000000000815260040161113190611b4c565b60405180910390fd5b6111438161114e565b50565b600033905090565b60008060009054906101000a900473ffffffffffffffffffffffffffffffffffffffff169050816000806101000a81548173ffffffffffffffffffffffffffffffffffffffff021916908373ffffffffffffffffffffffffffffffffffffffff1602179055508173ffffffffffffffffffffffffffffffffffffffff168173ffffffffffffffffffffffffffffffffffffffff167f8be0079c531659141344cd1fd0a4f28419497f9722a3daafe3b4186f6b6457e060405160405180910390a35050565b600081836112209190611b9b565b905092915050565b600081836112369190611c24565b905092915050565b6000818361124c9190611c55565b905092915050565b60008115159050919050565b61126981611254565b82525050565b60006020820190506112846000830184611260565b92915050565b6000819050919050565b61129d8161128a565b82525050565b60006020820190506112b86000830184611294565b92915050565b600073ffffffffffffffffffffffffffffffffffffffff82169050919050565b60006112e9826112be565b9050919050565b6112f9816112de565b82525050565b600060208201905061131460008301846112f0565b92915050565b6000604051905090565b600080fd5b600080fd5b611337816112de565b811461134257600080fd5b50565b6000813590506113548161132e565b92915050565b6000602082840312156113705761136f611324565b5b600061137e84828501611345565b91505092915050565b6113908161128a565b811461139b57600080fd5b50565b6000813590506113ad81611387565b92915050565b6000602082840312156113c9576113c8611324565b5b60006113d78482850161139e565b91505092915050565b600082825260208201905092915050565b7f4f776e61626c653a2063616c6c6572206973206e6f7420746865206f776e6572600082015250565b60006114276020836113e0565b9150611432826113f1565b602082019050919050565b600060208201905081810360008301526114568161141a565b9050919050565b60008151905061146c81611387565b92915050565b60006020828403121561148857611487611324565b5b60006114968482850161145d565b91505092915050565b7f43616e6e6f74206275792077697468207a65726f20626e620000000000000000600082015250565b60006114d56018836113e0565b91506114e08261149f565b602082019050919050565b60006020820190508181036000830152611504816114c8565b9050919050565b7f53616c65206973206e6f74206c69766520796574000000000000000000000000600082015250565b60006115416014836113e0565b915061154c8261150b565b602082019050919050565b6000602082019050818103600083015261157081611534565b9050919050565b7f546f6b656e2073616c652069732063757272656e746c79207061757365642e00600082015250565b60006115ad601f836113e0565b91506115b882611577565b602082019050919050565b600060208201905081810360008301526115dc816115a0565b9050919050565b7f5468697320706f6f6c20646f6573206e6f74206861766520656e6f756768207460008201527f6f6b656e7320746f2066756c66696c6c2074686973206f726465720000000000602082015250565b600061163f603b836113e0565b915061164a826115e3565b604082019050919050565b6000602082019050818103600083015261166e81611632565b9050919050565b600060408201905061168a60008301856112f0565b6116976020830184611294565b9392505050565b6116a781611254565b81146116b257600080fd5b50565b6000815190506116c48161169e565b92915050565b6000602082840312156116e0576116df611324565b5b60006116ee848285016116b5565b91505092915050565b7f546f6b656e732063616e206e6f742062652077697468647261776e20746f206160008201527f207a65726f20616464726573732e000000000000000000000000000000000000602082015250565b6000611753602e836113e0565b915061175e826116f7565b604082019050919050565b6000602082019050818103600083015261178281611746565b9050919050565b7f43616e206e6f742062652077697468647261776e20746f2061207a65726f206160008201527f6464726573732e00000000000000000000000000000000000000000000000000602082015250565b60006117e56027836113e0565b91506117f082611789565b604082019050919050565b60006020820190508181036000830152611814816117d8565b9050919050565b7f4e487b7100000000000000000000000000000000000000000000000000000000600052604160045260246000fd5b7f4e487b7100000000000000000000000000000000000000000000000000000000600052603260045260246000fd5b600081519050919050565b600082825260208201905092915050565b6000819050602082019050919050565b6118ae816112de565b82525050565b60006118c083836118a5565b60208301905092915050565b6000602082019050919050565b60006118e482611879565b6118ee8185611884565b93506118f983611895565b8060005b8381101561192a57815161191188826118b4565b975061191c836118cc565b9250506001810190506118fd565b5085935050505092915050565b600060408201905061194c6000830185611294565b818103602083015261195e81846118d9565b90509392505050565b600080fd5b6000601f19601f8301169050919050565b6119868261196c565b810181811067ffffffffffffffff821117156119a5576119a461181b565b5b80604052505050565b60006119b861131a565b90506119c4828261197d565b919050565b600067ffffffffffffffff8211156119e4576119e361181b565b5b602082029050602081019050919050565b600080fd5b6000611a0d611a08846119c9565b6119ae565b90508083825260208201905060208402830185811115611a3057611a2f6119f5565b5b835b81811015611a595780611a45888261145d565b845260208401935050602081019050611a32565b5050509392505050565b600082601f830112611a7857611a77611967565b5b8151611a888482602086016119fa565b91505092915050565b600060208284031215611aa757611aa6611324565b5b600082015167ffffffffffffffff811115611ac557611ac4611329565b5b611ad184828501611a63565b91505092915050565b7f4f776e61626c653a206e6577206f776e657220697320746865207a65726f206160008201527f6464726573730000000000000000000000000000000000000000000000000000602082015250565b6000611b366026836113e0565b9150611b4182611ada565b604082019050919050565b60006020820190508181036000830152611b6581611b29565b9050919050565b7f4e487b7100000000000000000000000000000000000000000000000000000000600052601160045260246000fd5b6000611ba68261128a565b9150611bb18361128a565b9250817fffffffffffffffffffffffffffffffffffffffffffffffffffffffffffffffff0483118215151615611bea57611be9611b6c565b5b828202905092915050565b7f4e487b7100000000000000000000000000000000000000000000000000000000600052601260045260246000fd5b6000611c2f8261128a565b9150611c3a8361128a565b925082611c4a57611c49611bf5565b5b828204905092915050565b6000611c608261128a565b9150611c6b8361128a565b9250827fffffffffffffffffffffffffffffffffffffffffffffffffffffffffffffffff03821115611ca057611c9f611b6c565b5b82820190509291505056fea2646970667358221220132eb55941b4f9a24299fe0e8885a51e7a47353e449069f6d94481b7941ca42164736f6c634300080a0033",
    "immutableReferences": {},
    "source": "// SPDX-License-Identifier: MIT\r\n\r\npragma solidity ^0.8.7;\r\n\r\nlibrary SafeMath {\r\n    function tryAdd(uint256 a, uint256 b) internal pure returns (bool, uint256) {\r\n        unchecked {\r\n            uint256 c = a + b;\r\n            if (c < a) return (false, 0);\r\n            return (true, c);\r\n        }\r\n    }\r\n\r\n    function trySub(uint256 a, uint256 b) internal pure returns (bool, uint256) {\r\n        unchecked {\r\n            if (b > a) return (false, 0);\r\n            return (true, a - b);\r\n        }\r\n    }\r\n\r\n    function tryMul(uint256 a, uint256 b) internal pure returns (bool, uint256) {\r\n        unchecked {\r\n            if (a == 0) return (true, 0);\r\n            uint256 c = a * b;\r\n            if (c / a != b) return (false, 0);\r\n            return (true, c);\r\n        }\r\n    }\r\n\r\n    function tryDiv(uint256 a, uint256 b) internal pure returns (bool, uint256) {\r\n        unchecked {\r\n            if (b == 0) return (false, 0);\r\n            return (true, a / b);\r\n        }\r\n    }\r\n\r\n    function tryMod(uint256 a, uint256 b) internal pure returns (bool, uint256) {\r\n        unchecked {\r\n            if (b == 0) return (false, 0);\r\n            return (true, a % b);\r\n        }\r\n    }\r\n\r\n    function add(uint256 a, uint256 b) internal pure returns (uint256) {\r\n        return a + b;\r\n    }\r\n\r\n    function sub(uint256 a, uint256 b) internal pure returns (uint256) {\r\n        return a - b;\r\n    }\r\n\r\n    function mul(uint256 a, uint256 b) internal pure returns (uint256) {\r\n        return a * b;\r\n    }\r\n\r\n    function div(uint256 a, uint256 b) internal pure returns (uint256) {\r\n        return a / b;\r\n    }\r\n\r\n    function mod(uint256 a, uint256 b) internal pure returns (uint256) {\r\n        return a % b;\r\n    }\r\n\r\n    function sub(\r\n        uint256 a,\r\n        uint256 b,\r\n        string memory errorMessage\r\n    ) internal pure returns (uint256) {\r\n        unchecked {\r\n            require(b <= a, errorMessage);\r\n            return a - b;\r\n        }\r\n    }\r\n\r\n    function div(\r\n        uint256 a,\r\n        uint256 b,\r\n        string memory errorMessage\r\n    ) internal pure returns (uint256) {\r\n        unchecked {\r\n            require(b > 0, errorMessage);\r\n            return a / b;\r\n        }\r\n    }\r\n\r\n    function mod(\r\n        uint256 a,\r\n        uint256 b,\r\n        string memory errorMessage\r\n    ) internal pure returns (uint256) {\r\n        unchecked {\r\n            require(b > 0, errorMessage);\r\n            return a % b;\r\n        }\r\n    }\r\n}\r\n\r\ninterface IUniswapV2Router01 {\r\n    function factory() external pure returns (address);\r\n    function WETH() external pure returns (address);\r\n\r\n    function addLiquidity(\r\n        address tokenA,\r\n        address tokenB,\r\n        uint amountADesired,\r\n        uint amountBDesired,\r\n        uint amountAMin,\r\n        uint amountBMin,\r\n        address to,\r\n        uint deadline\r\n    ) external returns (uint amountA, uint amountB, uint liquidity);\r\n    function addLiquidityETH(\r\n        address token,\r\n        uint amountTokenDesired,\r\n        uint amountTokenMin,\r\n        uint amountETHMin,\r\n        address to,\r\n        uint deadline\r\n    ) external payable returns (uint amountToken, uint amountETH, uint liquidity);\r\n    function removeLiquidity(\r\n        address tokenA,\r\n        address tokenB,\r\n        uint liquidity,\r\n        uint amountAMin,\r\n        uint amountBMin,\r\n        address to,\r\n        uint deadline\r\n    ) external returns (uint amountA, uint amountB);\r\n    function removeLiquidityETH(\r\n        address token,\r\n        uint liquidity,\r\n        uint amountTokenMin,\r\n        uint amountETHMin,\r\n        address to,\r\n        uint deadline\r\n    ) external returns (uint amountToken, uint amountETH);\r\n    function removeLiquidityWithPermit(\r\n        address tokenA,\r\n        address tokenB,\r\n        uint liquidity,\r\n        uint amountAMin,\r\n        uint amountBMin,\r\n        address to,\r\n        uint deadline,\r\n        bool approveMax, uint8 v, bytes32 r, bytes32 s\r\n    ) external returns (uint amountA, uint amountB);\r\n    function removeLiquidityETHWithPermit(\r\n        address token,\r\n        uint liquidity,\r\n        uint amountTokenMin,\r\n        uint amountETHMin,\r\n        address to,\r\n        uint deadline,\r\n        bool approveMax, uint8 v, bytes32 r, bytes32 s\r\n    ) external returns (uint amountToken, uint amountETH);\r\n    function swapExactTokensForTokens(\r\n        uint amountIn,\r\n        uint amountOutMin,\r\n        address[] calldata path,\r\n        address to,\r\n        uint deadline\r\n    ) external returns (uint[] memory amounts);\r\n    function swapTokensForExactTokens(\r\n        uint amountOut,\r\n        uint amountInMax,\r\n        address[] calldata path,\r\n        address to,\r\n        uint deadline\r\n    ) external returns (uint[] memory amounts);\r\n    function swapExactETHForTokens(uint amountOutMin, address[] calldata path, address to, uint deadline)\r\n        external\r\n        payable\r\n        returns (uint[] memory amounts);\r\n    function swapTokensForExactETH(uint amountOut, uint amountInMax, address[] calldata path, address to, uint deadline)\r\n        external\r\n        returns (uint[] memory amounts);\r\n    function swapExactTokensForETH(uint amountIn, uint amountOutMin, address[] calldata path, address to, uint deadline)\r\n        external\r\n        returns (uint[] memory amounts);\r\n    function swapETHForExactTokens(uint amountOut, address[] calldata path, address to, uint deadline)\r\n        external\r\n        payable\r\n        returns (uint[] memory amounts);\r\n\r\n    function quote(uint amountA, uint reserveA, uint reserveB) external pure returns (uint amountB);\r\n    function getAmountOut(uint amountIn, uint reserveIn, uint reserveOut) external pure returns (uint amountOut);\r\n    function getAmountIn(uint amountOut, uint reserveIn, uint reserveOut) external pure returns (uint amountIn);\r\n    function getAmountsOut(uint amountIn, address[] calldata path) external view returns (uint[] memory amounts);\r\n    function getAmountsIn(uint amountOut, address[] calldata path) external view returns (uint[] memory amounts);\r\n}\r\n\r\n\r\ninterface IUniswapV2Router02 is IUniswapV2Router01 {\r\n    function removeLiquidityETHSupportingFeeOnTransferTokens(\r\n        address token,\r\n        uint liquidity,\r\n        uint amountTokenMin,\r\n        uint amountETHMin,\r\n        address to,\r\n        uint deadline\r\n    ) external returns (uint amountETH);\r\n    function removeLiquidityETHWithPermitSupportingFeeOnTransferTokens(\r\n        address token,\r\n        uint liquidity,\r\n        uint amountTokenMin,\r\n        uint amountETHMin,\r\n        address to,\r\n        uint deadline,\r\n        bool approveMax, uint8 v, bytes32 r, bytes32 s\r\n    ) external returns (uint amountETH);\r\n\r\n    function swapExactTokensForTokensSupportingFeeOnTransferTokens(\r\n        uint amountIn,\r\n        uint amountOutMin,\r\n        address[] calldata path,\r\n        address to,\r\n        uint deadline\r\n    ) external;\r\n    function swapExactETHForTokensSupportingFeeOnTransferTokens(\r\n        uint amountOutMin,\r\n        address[] calldata path,\r\n        address to,\r\n        uint deadline\r\n    ) external payable;\r\n    function swapExactTokensForETHSupportingFeeOnTransferTokens(\r\n        uint amountIn,\r\n        uint amountOutMin,\r\n        address[] calldata path,\r\n        address to,\r\n        uint deadline\r\n    ) external;\r\n}\r\n\r\ninterface IERC20 {\r\n    function totalSupply() external view returns (uint256);\r\n    function balanceOf(address account) external view returns (uint256);\r\n    function transfer(address recipient, uint256 amount) external returns (bool);\r\n    function allowance(address owner, address spender) external view returns (uint256);\r\n    function approve(address spender, uint256 amount) external returns (bool);\r\n    function transferFrom(\r\n        address sender,\r\n        address recipient,\r\n        uint256 amount\r\n    ) external returns (bool);\r\n    event Transfer(address indexed from, address indexed to, uint256 value);\r\n    event Approval(address indexed owner, address indexed spender, uint256 value);\r\n}\r\n\r\nabstract contract Context {\r\n    function _msgSender() internal view virtual returns (address) {\r\n        return msg.sender;\r\n    }\r\n\r\n    function _msgData() internal view virtual returns (bytes calldata) {\r\n        return msg.data;\r\n    }\r\n}\r\nabstract contract Ownable is Context {\r\n    address private _owner;\r\n\r\n    event OwnershipTransferred(address indexed previousOwner, address indexed newOwner);\r\n\r\n    \r\n    constructor() {\r\n        _setOwner(_msgSender());\r\n    }\r\n\r\n    \r\n    function owner() public view virtual returns (address) {\r\n        return _owner;\r\n    }\r\n\r\n    \r\n    modifier onlyOwner() {\r\n        require(owner() == _msgSender(), \"Ownable: caller is not the owner\");\r\n        _;\r\n    }\r\n\r\n    \r\n    function renounceOwnership() public virtual onlyOwner {\r\n        _setOwner(address(0));\r\n    }\r\n\r\n   \r\n    function transferOwnership(address newOwner) public virtual onlyOwner {\r\n        require(newOwner != address(0), \"Ownable: new owner is the zero address\");\r\n        _setOwner(newOwner);\r\n    }\r\n\r\n    function _setOwner(address newOwner) private {\r\n        address oldOwner = _owner;\r\n        _owner = newOwner;\r\n        emit OwnershipTransferred(oldOwner, newOwner);\r\n    }\r\n}\r\n\r\ncontract MarvinSale is Ownable{\r\n    using SafeMath for uint256;\r\n\r\n    address public pancakeRouter = 0x7a250d5630B4cF539739dF2C5dAcb4c659F2488D;\r\n    address public WETHAddr = 0xB4FBF271143F4FBf7B91A5ded31805e42b2208d6;\r\n    address public marvinToken = 0x96c0ca1a8E9d5903D9d748533A737079308C70A6;\r\n\r\n    uint256 public discount = 15;\r\n    bool public isSaleOpen = false;\r\n    bool public isPaused = false;\r\n\r\n    function getEstimatedMarvin(uint256 bnbValue) public view returns (uint256){\r\n        IUniswapV2Router02 router = IUniswapV2Router02(pancakeRouter);\r\n        address[] memory path = new address[](2);\r\n        path[0] = WETHAddr;\r\n        path[1] = marvinToken;\r\n        uint256[] memory resultFromExchange  = router.getAmountsOut(bnbValue, path);\r\n        uint256 discountedMarvin = resultFromExchange[1].mul(discount).div(100);\r\n        return resultFromExchange[1].add(discountedMarvin);\r\n    }\r\n    \r\n    function withdrawMarvin(address to) external onlyOwner {\r\n        require(to!=address(0), \"Tokens can not be withdrawn to a zero address.\");\r\n        IERC20 token = IERC20(marvinToken);\r\n        token.transfer(to, token.balanceOf(address(this)));\r\n    }\r\n\r\n    function withdrawBNB(address to) external onlyOwner {\r\n        require(to!=address(0), \"Can not be withdrawn to a zero address.\");\r\n        payable(to).transfer(address(this).balance);\r\n    }\r\n\r\n    function buyMarvinToken() external payable {\r\n        require(msg.value > 0, \"Cannot buy with zero bnb\");\r\n        require(isSaleOpen, \"Sale is not live yet\");\r\n        require(!isPaused, \"Token sale is currently paused.\");\r\n        IERC20 token = IERC20(marvinToken);\r\n        uint256 estimatedMarvin = getEstimatedMarvin(msg.value);\r\n        require(estimatedMarvin <= token.balanceOf(address(this)), \"This pool does not have enough tokens to fulfill this order\");\r\n        token.transfer(msg.sender, estimatedMarvin);\r\n    }\r\n\r\n    function setSaleOpen() external onlyOwner{\r\n        isSaleOpen = true;\r\n    }\r\n\r\n    function pauseSale() external onlyOwner {\r\n        isPaused = true;\r\n    }\r\n\r\n    function resumeSale() external onlyOwner{\r\n        isPaused = false;\r\n    }\r\n    function getmarvinBalance() external view returns (uint256){\r\n        IERC20 token = IERC20(marvinToken);\r\n        return token.balanceOf(address(this));\r\n    }\r\n\r\n    function getUserMarvinBalance() external view returns (uint256){\r\n         IERC20 token = IERC20(marvinToken);\r\n        return token.balanceOf(address(msg.sender));\r\n    }\r\n    \r\n    function getBnbBalance() external view returns (uint256){\r\n        return address(this).balance;\r\n    }\r\n}",
    "sourcePath": "C:\\git\\freelance\\tokens\\contracts\\MarvinSale.sol",
    "compiler": {
        "name": "solc",
        "version": "0.8.10+commit.fc410830.Emscripten.clang"
    },
    "schemaVersion": "3.4.3",
    "updatedAt": "2021-12-27T15:34:51.824Z",
    "devdoc": {
        "kind": "dev",
        "methods": {},
        "version": 1
    },
    "userdoc": {
        "kind": "user",
        "methods": {},
        "version": 1
    }
}