{
    "contractName": "MarvinV2Swap",
    "abi": [
        {
            "inputs": [
                {
                    "internalType": "address",
                    "name": "v1Token",
                    "type": "address"
                },
                {
                    "internalType": "address",
                    "name": "v2Token",
                    "type": "address"
                }
            ],
            "stateMutability": "nonpayable",
            "type": "constructor"
        },
        {
            "anonymous": false,
            "inputs": [
                {
                    "indexed": true,
                    "internalType": "address",
                    "name": "previousOwner",
                    "type": "address"
                },
                {
                    "indexed": true,
                    "internalType": "address",
                    "name": "newOwner",
                    "type": "address"
                }
            ],
            "name": "OwnershipTransferred",
            "type": "event"
        },
        {
            "inputs": [],
            "name": "owner",
            "outputs": [
                {
                    "internalType": "address",
                    "name": "",
                    "type": "address"
                }
            ],
            "stateMutability": "view",
            "type": "function"
        },
        {
            "inputs": [],
            "name": "renounceOwnership",
            "outputs": [],
            "stateMutability": "nonpayable",
            "type": "function"
        },
        {
            "inputs": [
                {
                    "internalType": "address",
                    "name": "newOwner",
                    "type": "address"
                }
            ],
            "name": "transferOwnership",
            "outputs": [],
            "stateMutability": "nonpayable",
            "type": "function"
        },
        {
            "inputs": [],
            "name": "marvinV1Token",
            "outputs": [
                {
                    "internalType": "contract IERC20",
                    "name": "",
                    "type": "address"
                }
            ],
            "stateMutability": "view",
            "type": "function"
        },
        {
            "inputs": [],
            "name": "marvinV2Token",
            "outputs": [
                {
                    "internalType": "contract IERC20",
                    "name": "",
                    "type": "address"
                }
            ],
            "stateMutability": "view",
            "type": "function"
        },
        {
            "inputs": [],
            "name": "balanceOfV1",
            "outputs": [
                {
                    "internalType": "uint256",
                    "name": "",
                    "type": "uint256"
                }
            ],
            "stateMutability": "view",
            "type": "function"
        },
        {
            "inputs": [],
            "name": "balanceOfV2",
            "outputs": [
                {
                    "internalType": "uint256",
                    "name": "",
                    "type": "uint256"
                }
            ],
            "stateMutability": "view",
            "type": "function"
        },
        {
            "inputs": [],
            "name": "totalSwapCount",
            "outputs": [
                {
                    "internalType": "uint256",
                    "name": "",
                    "type": "uint256"
                }
            ],
            "stateMutability": "view",
            "type": "function"
        },
        {
            "inputs": [],
            "name": "withdrawMarvinV1",
            "outputs": [
                {
                    "internalType": "bool",
                    "name": "",
                    "type": "bool"
                }
            ],
            "stateMutability": "nonpayable",
            "type": "function"
        },
        {
            "inputs": [],
            "name": "withdrawMarvinV2",
            "outputs": [
                {
                    "internalType": "bool",
                    "name": "",
                    "type": "bool"
                }
            ],
            "stateMutability": "nonpayable",
            "type": "function"
        },
        {
            "inputs": [],
            "name": "swapV1forV2",
            "outputs": [
                {
                    "internalType": "bool",
                    "name": "",
                    "type": "bool"
                }
            ],
            "stateMutability": "nonpayable",
            "type": "function"
        }
    ],
    "bytecode": "0x608060405260006003553480156200001657600080fd5b50604051620011d4380380620011d483398181016040528101906200003c91906200021c565b6200005c62000050620000e660201b60201c565b620000ee60201b60201c565b81600160006101000a81548173ffffffffffffffffffffffffffffffffffffffff021916908373ffffffffffffffffffffffffffffffffffffffff16021790555080600260006101000a81548173ffffffffffffffffffffffffffffffffffffffff021916908373ffffffffffffffffffffffffffffffffffffffff160217905550505062000263565b600033905090565b60008060009054906101000a900473ffffffffffffffffffffffffffffffffffffffff169050816000806101000a81548173ffffffffffffffffffffffffffffffffffffffff021916908373ffffffffffffffffffffffffffffffffffffffff1602179055508173ffffffffffffffffffffffffffffffffffffffff168173ffffffffffffffffffffffffffffffffffffffff167f8be0079c531659141344cd1fd0a4f28419497f9722a3daafe3b4186f6b6457e060405160405180910390a35050565b600080fd5b600073ffffffffffffffffffffffffffffffffffffffff82169050919050565b6000620001e482620001b7565b9050919050565b620001f681620001d7565b81146200020257600080fd5b50565b6000815190506200021681620001eb565b92915050565b60008060408385031215620002365762000235620001b2565b5b6000620002468582860162000205565b9250506020620002598582860162000205565b9150509250929050565b610f6180620002736000396000f3fe608060405234801561001057600080fd5b50600436106100a85760003560e01c8063be7db31511610071578063be7db3151461012f578063c647a9bc1461014d578063d4d3e1411461016b578063ede9f2e814610189578063f2fde38b146101a7578063f712fe79146101c3576100a8565b8062a47416146100ad5780636f174d27146100cb578063715018a6146100e95780638da5cb5b146100f3578063a64a2c1e14610111575b600080fd5b6100b56101e1565b6040516100c29190610b66565b60405180910390f35b6100d361020b565b6040516100e09190610b9c565b60405180910390f35b6100f161034e565b005b6100fb6103d6565b6040516101089190610bd8565b60405180910390f35b6101196103ff565b6040516101269190610b66565b60405180910390f35b610137610429565b6040516101449190610c0c565b60405180910390f35b6101556104db565b6040516101629190610b9c565b60405180910390f35b610173610724565b6040516101809190610c0c565b60405180910390f35b61019161072e565b60405161019e9190610b9c565b60405180910390f35b6101c160048036038101906101bc9190610c58565b610871565b005b6101cb610969565b6040516101d89190610c0c565b60405180910390f35b6000600160009054906101000a900473ffffffffffffffffffffffffffffffffffffffff16905090565b6000610215610a1b565b73ffffffffffffffffffffffffffffffffffffffff166102336103d6565b73ffffffffffffffffffffffffffffffffffffffff1614610289576040517f08c379a000000000000000000000000000000000000000000000000000000000815260040161028090610ce2565b60405180910390fd5b600160009054906101000a900473ffffffffffffffffffffffffffffffffffffffff1673ffffffffffffffffffffffffffffffffffffffff1663a9059cbb6102cf6103d6565b6102d7610969565b6040518363ffffffff1660e01b81526004016102f4929190610d02565b602060405180830381600087803b15801561030e57600080fd5b505af1158015610322573d6000803e3d6000fd5b505050506040513d601f19601f820116820180604052508101906103469190610d57565b506001905090565b610356610a1b565b73ffffffffffffffffffffffffffffffffffffffff166103746103d6565b73ffffffffffffffffffffffffffffffffffffffff16146103ca576040517f08c379a00000000000000000000000000000000000000000000000000000000081526004016103c190610ce2565b60405180910390fd5b6103d46000610a23565b565b60008060009054906101000a900473ffffffffffffffffffffffffffffffffffffffff16905090565b6000600260009054906101000a900473ffffffffffffffffffffffffffffffffffffffff16905090565b6000600260009054906101000a900473ffffffffffffffffffffffffffffffffffffffff1673ffffffffffffffffffffffffffffffffffffffff166370a08231306040518263ffffffff1660e01b81526004016104869190610bd8565b60206040518083038186803b15801561049e57600080fd5b505afa1580156104b2573d6000803e3d6000fd5b505050506040513d601f19601f820116820180604052508101906104d69190610db0565b905090565b600080600160009054906101000a900473ffffffffffffffffffffffffffffffffffffffff1673ffffffffffffffffffffffffffffffffffffffff166370a08231610524610a1b565b6040518263ffffffff1660e01b81526004016105409190610bd8565b60206040518083038186803b15801561055857600080fd5b505afa15801561056c573d6000803e3d6000fd5b505050506040513d601f19601f820116820180604052508101906105909190610db0565b9050600160009054906101000a900473ffffffffffffffffffffffffffffffffffffffff1673ffffffffffffffffffffffffffffffffffffffff166323b872dd6105d8610a1b565b30846040518463ffffffff1660e01b81526004016105f893929190610ddd565b602060405180830381600087803b15801561061257600080fd5b505af1158015610626573d6000803e3d6000fd5b505050506040513d601f19601f8201168201806040525081019061064a9190610d57565b50600260009054906101000a900473ffffffffffffffffffffffffffffffffffffffff1673ffffffffffffffffffffffffffffffffffffffff1663a9059cbb610691610a1b565b836040518363ffffffff1660e01b81526004016106af929190610d02565b602060405180830381600087803b1580156106c957600080fd5b505af11580156106dd573d6000803e3d6000fd5b505050506040513d601f19601f820116820180604052508101906107019190610d57565b506001600360008282546107159190610e43565b92505081905550600191505090565b6000600354905090565b6000610738610a1b565b73ffffffffffffffffffffffffffffffffffffffff166107566103d6565b73ffffffffffffffffffffffffffffffffffffffff16146107ac576040517f08c379a00000000000000000000000000000000000000000000000000000000081526004016107a390610ce2565b60405180910390fd5b600260009054906101000a900473ffffffffffffffffffffffffffffffffffffffff1673ffffffffffffffffffffffffffffffffffffffff1663a9059cbb6107f26103d6565b6107fa610429565b6040518363ffffffff1660e01b8152600401610817929190610d02565b602060405180830381600087803b15801561083157600080fd5b505af1158015610845573d6000803e3d6000fd5b505050506040513d601f19601f820116820180604052508101906108699190610d57565b506001905090565b610879610a1b565b73ffffffffffffffffffffffffffffffffffffffff166108976103d6565b73ffffffffffffffffffffffffffffffffffffffff16146108ed576040517f08c379a00000000000000000000000000000000000000000000000000000000081526004016108e490610ce2565b60405180910390fd5b600073ffffffffffffffffffffffffffffffffffffffff168173ffffffffffffffffffffffffffffffffffffffff16141561095d576040517f08c379a000000000000000000000000000000000000000000000000000000000815260040161095490610f0b565b60405180910390fd5b61096681610a23565b50565b6000600160009054906101000a900473ffffffffffffffffffffffffffffffffffffffff1673ffffffffffffffffffffffffffffffffffffffff166370a08231306040518263ffffffff1660e01b81526004016109c69190610bd8565b60206040518083038186803b1580156109de57600080fd5b505afa1580156109f2573d6000803e3d6000fd5b505050506040513d601f19601f82011682018060405250810190610a169190610db0565b905090565b600033905090565b60008060009054906101000a900473ffffffffffffffffffffffffffffffffffffffff169050816000806101000a81548173ffffffffffffffffffffffffffffffffffffffff021916908373ffffffffffffffffffffffffffffffffffffffff1602179055508173ffffffffffffffffffffffffffffffffffffffff168173ffffffffffffffffffffffffffffffffffffffff167f8be0079c531659141344cd1fd0a4f28419497f9722a3daafe3b4186f6b6457e060405160405180910390a35050565b600073ffffffffffffffffffffffffffffffffffffffff82169050919050565b6000819050919050565b6000610b2c610b27610b2284610ae7565b610b07565b610ae7565b9050919050565b6000610b3e82610b11565b9050919050565b6000610b5082610b33565b9050919050565b610b6081610b45565b82525050565b6000602082019050610b7b6000830184610b57565b92915050565b60008115159050919050565b610b9681610b81565b82525050565b6000602082019050610bb16000830184610b8d565b92915050565b6000610bc282610ae7565b9050919050565b610bd281610bb7565b82525050565b6000602082019050610bed6000830184610bc9565b92915050565b6000819050919050565b610c0681610bf3565b82525050565b6000602082019050610c216000830184610bfd565b92915050565b600080fd5b610c3581610bb7565b8114610c4057600080fd5b50565b600081359050610c5281610c2c565b92915050565b600060208284031215610c6e57610c6d610c27565b5b6000610c7c84828501610c43565b91505092915050565b600082825260208201905092915050565b7f4f776e61626c653a2063616c6c6572206973206e6f7420746865206f776e6572600082015250565b6000610ccc602083610c85565b9150610cd782610c96565b602082019050919050565b60006020820190508181036000830152610cfb81610cbf565b9050919050565b6000604082019050610d176000830185610bc9565b610d246020830184610bfd565b9392505050565b610d3481610b81565b8114610d3f57600080fd5b50565b600081519050610d5181610d2b565b92915050565b600060208284031215610d6d57610d6c610c27565b5b6000610d7b84828501610d42565b91505092915050565b610d8d81610bf3565b8114610d9857600080fd5b50565b600081519050610daa81610d84565b92915050565b600060208284031215610dc657610dc5610c27565b5b6000610dd484828501610d9b565b91505092915050565b6000606082019050610df26000830186610bc9565b610dff6020830185610bc9565b610e0c6040830184610bfd565b949350505050565b7f4e487b7100000000000000000000000000000000000000000000000000000000600052601160045260246000fd5b6000610e4e82610bf3565b9150610e5983610bf3565b9250827fffffffffffffffffffffffffffffffffffffffffffffffffffffffffffffffff03821115610e8e57610e8d610e14565b5b828201905092915050565b7f4f776e61626c653a206e6577206f776e657220697320746865207a65726f206160008201527f6464726573730000000000000000000000000000000000000000000000000000602082015250565b6000610ef5602683610c85565b9150610f0082610e99565b604082019050919050565b60006020820190508181036000830152610f2481610ee8565b905091905056fea26469706673582212207d76d2d4414315713cab22b1c145fdf8da2dcbd83e732abbeae287db9e45693864736f6c63430008090033",
    "immutableReferences": {},
    "source": "// SPDX-License-Identifier: MIT\r\npragma solidity 0.8.9;\r\n\r\ninterface IERC20 {\r\n    function balanceOf(address account) external view returns (uint256);\r\n    function transfer(address recipient, uint256 amount) external returns (bool);\r\n    function allowance(address owner, address spender) external view returns (uint256);\r\n    function approve(address spender, uint256 amount) external returns (bool);\r\n    function transferFrom(\r\n        address sender,\r\n        address recipient,\r\n        uint256 amount\r\n    ) external returns (bool);\r\n    event Transfer(address indexed from, address indexed to, uint256 value);\r\n    event Approval(address indexed owner, address indexed spender, uint256 value);\r\n}\r\n\r\nabstract contract Context{\r\n    function _msgSender() internal view virtual returns (address) {\r\n        return msg.sender;\r\n    }\r\n\r\n    function _msgData() internal view virtual returns (bytes calldata) {\r\n        return msg.data;\r\n    }\r\n}\r\n\r\nabstract contract Ownable is Context {\r\n    address private _owner;\r\n\r\n    event OwnershipTransferred(address indexed previousOwner, address indexed newOwner);\r\n    constructor() {\r\n        _setOwner(_msgSender());\r\n    }\r\n    function owner() public view virtual returns (address) {\r\n        return _owner;\r\n    }\r\n    modifier onlyOwner() {\r\n        require(owner() == _msgSender(), \"Ownable: caller is not the owner\");\r\n        _;\r\n    }\r\n    function renounceOwnership() public virtual onlyOwner {\r\n        _setOwner(address(0));\r\n    }\r\n    function transferOwnership(address newOwner) public virtual onlyOwner {\r\n        require(newOwner != address(0), \"Ownable: new owner is the zero address\");\r\n        _setOwner(newOwner);\r\n    }\r\n    function _setOwner(address newOwner) private {\r\n        address oldOwner = _owner;\r\n        _owner = newOwner;\r\n        emit OwnershipTransferred(oldOwner, newOwner);\r\n    }\r\n}\r\n\r\ncontract MarvinV2Swap is Context, Ownable {\r\n\r\n    IERC20 private marvinV1;\r\n    IERC20 private marvinV2;\r\n\r\n    uint256 private swapCount = 0;\r\n\r\n    constructor(address v1Token, address v2Token){\r\n        marvinV1 = IERC20(v1Token);\r\n        marvinV2 = IERC20(v2Token);\r\n    } \r\n\r\n    function marvinV1Token() external view returns(IERC20){\r\n        return marvinV1;\r\n    }\r\n\r\n    function marvinV2Token() external view returns(IERC20){\r\n        return marvinV2;\r\n    }\r\n\r\n    function balanceOfV1() public view returns(uint256){\r\n        return marvinV1.balanceOf(address(this));\r\n    }\r\n\r\n    function balanceOfV2() public view returns(uint256){\r\n        return marvinV2.balanceOf(address(this));\r\n    }\r\n\r\n    function totalSwapCount() external view returns(uint256) {\r\n        return swapCount;\r\n    }\r\n\r\n    \r\n    function withdrawMarvinV1() external onlyOwner() returns(bool){\r\n        marvinV1.transfer(owner(), balanceOfV1());\r\n        return true;\r\n    }\r\n\r\n    function withdrawMarvinV2() external onlyOwner() returns(bool){\r\n         marvinV2.transfer(owner(), balanceOfV2());\r\n         return true;\r\n    }\r\n\r\n    function swapV1forV2() external returns(bool){\r\n\r\n        uint256 swapAmount = marvinV1.balanceOf(_msgSender());\r\n        //deposit marvin V1\r\n        marvinV1.transferFrom(_msgSender(), address(this), swapAmount);\r\n        //release marvin V2\r\n        marvinV2.transfer(_msgSender(), swapAmount);\r\n        swapCount +=1;\r\n        return true;\r\n    }\r\n}",
    "sourcePath": "C:\\git\\freelance\\tokens\\contracts\\MarvinV2Swap.sol",
    "compiler": {
        "name": "solc",
        "version": "0.8.9+commit.e5eed63a.Emscripten.clang"
    },
    "schemaVersion": "3.4.3",
    "updatedAt": "2021-12-04T15:34:25.362Z",
    "devdoc": {
        "kind": "dev",
        "methods": {},
        "version": 1
    },
    "userdoc": {
        "kind": "user",
        "methods": {},
        "version": 1
    }
}