{
    "contractName": "BossyMartian",
    "abi": [
        {
            "inputs": [
                {
                    "internalType": "string",
                    "name": "baseURI",
                    "type": "string"
                }
            ],
            "stateMutability": "nonpayable",
            "type": "constructor"
        },
        {
            "anonymous": false,
            "inputs": [
                {
                    "indexed": true,
                    "internalType": "address",
                    "name": "owner",
                    "type": "address"
                },
                {
                    "indexed": true,
                    "internalType": "address",
                    "name": "approved",
                    "type": "address"
                },
                {
                    "indexed": true,
                    "internalType": "uint256",
                    "name": "tokenId",
                    "type": "uint256"
                }
            ],
            "name": "Approval",
            "type": "event"
        },
        {
            "anonymous": false,
            "inputs": [
                {
                    "indexed": true,
                    "internalType": "address",
                    "name": "owner",
                    "type": "address"
                },
                {
                    "indexed": true,
                    "internalType": "address",
                    "name": "operator",
                    "type": "address"
                },
                {
                    "indexed": false,
                    "internalType": "bool",
                    "name": "approved",
                    "type": "bool"
                }
            ],
            "name": "ApprovalForAll",
            "type": "event"
        },
        {
            "anonymous": false,
            "inputs": [
                {
                    "indexed": true,
                    "internalType": "uint256",
                    "name": "id",
                    "type": "uint256"
                }
            ],
            "name": "CreateBossyMartian",
            "type": "event"
        },
        {
            "anonymous": false,
            "inputs": [
                {
                    "indexed": true,
                    "internalType": "address",
                    "name": "previousOwner",
                    "type": "address"
                },
                {
                    "indexed": true,
                    "internalType": "address",
                    "name": "newOwner",
                    "type": "address"
                }
            ],
            "name": "OwnershipTransferred",
            "type": "event"
        },
        {
            "anonymous": false,
            "inputs": [
                {
                    "indexed": true,
                    "internalType": "address",
                    "name": "from",
                    "type": "address"
                },
                {
                    "indexed": true,
                    "internalType": "address",
                    "name": "to",
                    "type": "address"
                },
                {
                    "indexed": true,
                    "internalType": "uint256",
                    "name": "tokenId",
                    "type": "uint256"
                }
            ],
            "name": "Transfer",
            "type": "event"
        },
        {
            "inputs": [],
            "name": "MAX_BY_MINT",
            "outputs": [
                {
                    "internalType": "uint256",
                    "name": "",
                    "type": "uint256"
                }
            ],
            "stateMutability": "view",
            "type": "function",
            "constant": true
        },
        {
            "inputs": [],
            "name": "MAX_BY_MINT_WHITELIST",
            "outputs": [
                {
                    "internalType": "uint256",
                    "name": "",
                    "type": "uint256"
                }
            ],
            "stateMutability": "view",
            "type": "function",
            "constant": true
        },
        {
            "inputs": [],
            "name": "MAX_ELEMENTS",
            "outputs": [
                {
                    "internalType": "uint256",
                    "name": "",
                    "type": "uint256"
                }
            ],
            "stateMutability": "view",
            "type": "function",
            "constant": true
        },
        {
            "inputs": [],
            "name": "MAX_RESERVE_COUNT",
            "outputs": [
                {
                    "internalType": "uint256",
                    "name": "",
                    "type": "uint256"
                }
            ],
            "stateMutability": "view",
            "type": "function",
            "constant": true
        },
        {
            "inputs": [],
            "name": "MAX_WALLET",
            "outputs": [
                {
                    "internalType": "uint256",
                    "name": "",
                    "type": "uint256"
                }
            ],
            "stateMutability": "view",
            "type": "function",
            "constant": true
        },
        {
            "inputs": [],
            "name": "PRESALE_PRICE",
            "outputs": [
                {
                    "internalType": "uint256",
                    "name": "",
                    "type": "uint256"
                }
            ],
            "stateMutability": "view",
            "type": "function",
            "constant": true
        },
        {
            "inputs": [],
            "name": "PRICE",
            "outputs": [
                {
                    "internalType": "uint256",
                    "name": "",
                    "type": "uint256"
                }
            ],
            "stateMutability": "view",
            "type": "function",
            "constant": true
        },
        {
            "inputs": [
                {
                    "internalType": "address",
                    "name": "to",
                    "type": "address"
                },
                {
                    "internalType": "uint256",
                    "name": "tokenId",
                    "type": "uint256"
                }
            ],
            "name": "approve",
            "outputs": [],
            "stateMutability": "nonpayable",
            "type": "function"
        },
        {
            "inputs": [
                {
                    "internalType": "address",
                    "name": "owner",
                    "type": "address"
                }
            ],
            "name": "balanceOf",
            "outputs": [
                {
                    "internalType": "uint256",
                    "name": "",
                    "type": "uint256"
                }
            ],
            "stateMutability": "view",
            "type": "function",
            "constant": true
        },
        {
            "inputs": [],
            "name": "baseTokenURI",
            "outputs": [
                {
                    "internalType": "string",
                    "name": "",
                    "type": "string"
                }
            ],
            "stateMutability": "view",
            "type": "function",
            "constant": true
        },
        {
            "inputs": [
                {
                    "internalType": "uint256",
                    "name": "tokenId",
                    "type": "uint256"
                }
            ],
            "name": "getApproved",
            "outputs": [
                {
                    "internalType": "address",
                    "name": "",
                    "type": "address"
                }
            ],
            "stateMutability": "view",
            "type": "function",
            "constant": true
        },
        {
            "inputs": [
                {
                    "internalType": "address",
                    "name": "owner",
                    "type": "address"
                },
                {
                    "internalType": "address",
                    "name": "operator",
                    "type": "address"
                }
            ],
            "name": "isApprovedForAll",
            "outputs": [
                {
                    "internalType": "bool",
                    "name": "",
                    "type": "bool"
                }
            ],
            "stateMutability": "view",
            "type": "function",
            "constant": true
        },
        {
            "inputs": [],
            "name": "isPaused",
            "outputs": [
                {
                    "internalType": "bool",
                    "name": "",
                    "type": "bool"
                }
            ],
            "stateMutability": "view",
            "type": "function",
            "constant": true
        },
        {
            "inputs": [],
            "name": "isPresaleOpen",
            "outputs": [
                {
                    "internalType": "bool",
                    "name": "",
                    "type": "bool"
                }
            ],
            "stateMutability": "view",
            "type": "function",
            "constant": true
        },
        {
            "inputs": [],
            "name": "isRevealed",
            "outputs": [
                {
                    "internalType": "bool",
                    "name": "",
                    "type": "bool"
                }
            ],
            "stateMutability": "view",
            "type": "function",
            "constant": true
        },
        {
            "inputs": [],
            "name": "isSaleOpen",
            "outputs": [
                {
                    "internalType": "bool",
                    "name": "",
                    "type": "bool"
                }
            ],
            "stateMutability": "view",
            "type": "function",
            "constant": true
        },
        {
            "inputs": [],
            "name": "name",
            "outputs": [
                {
                    "internalType": "string",
                    "name": "",
                    "type": "string"
                }
            ],
            "stateMutability": "view",
            "type": "function",
            "constant": true
        },
        {
            "inputs": [],
            "name": "owner",
            "outputs": [
                {
                    "internalType": "address",
                    "name": "",
                    "type": "address"
                }
            ],
            "stateMutability": "view",
            "type": "function",
            "constant": true
        },
        {
            "inputs": [
                {
                    "internalType": "uint256",
                    "name": "tokenId",
                    "type": "uint256"
                }
            ],
            "name": "ownerOf",
            "outputs": [
                {
                    "internalType": "address",
                    "name": "",
                    "type": "address"
                }
            ],
            "stateMutability": "view",
            "type": "function",
            "constant": true
        },
        {
            "inputs": [],
            "name": "renounceOwnership",
            "outputs": [],
            "stateMutability": "nonpayable",
            "type": "function"
        },
        {
            "inputs": [
                {
                    "internalType": "address",
                    "name": "from",
                    "type": "address"
                },
                {
                    "internalType": "address",
                    "name": "to",
                    "type": "address"
                },
                {
                    "internalType": "uint256",
                    "name": "tokenId",
                    "type": "uint256"
                }
            ],
            "name": "safeTransferFrom",
            "outputs": [],
            "stateMutability": "nonpayable",
            "type": "function"
        },
        {
            "inputs": [
                {
                    "internalType": "address",
                    "name": "from",
                    "type": "address"
                },
                {
                    "internalType": "address",
                    "name": "to",
                    "type": "address"
                },
                {
                    "internalType": "uint256",
                    "name": "tokenId",
                    "type": "uint256"
                },
                {
                    "internalType": "bytes",
                    "name": "_data",
                    "type": "bytes"
                }
            ],
            "name": "safeTransferFrom",
            "outputs": [],
            "stateMutability": "nonpayable",
            "type": "function"
        },
        {
            "inputs": [
                {
                    "internalType": "address",
                    "name": "operator",
                    "type": "address"
                },
                {
                    "internalType": "bool",
                    "name": "approved",
                    "type": "bool"
                }
            ],
            "name": "setApprovalForAll",
            "outputs": [],
            "stateMutability": "nonpayable",
            "type": "function"
        },
        {
            "inputs": [
                {
                    "internalType": "bytes4",
                    "name": "interfaceId",
                    "type": "bytes4"
                }
            ],
            "name": "supportsInterface",
            "outputs": [
                {
                    "internalType": "bool",
                    "name": "",
                    "type": "bool"
                }
            ],
            "stateMutability": "view",
            "type": "function",
            "constant": true
        },
        {
            "inputs": [],
            "name": "symbol",
            "outputs": [
                {
                    "internalType": "string",
                    "name": "",
                    "type": "string"
                }
            ],
            "stateMutability": "view",
            "type": "function",
            "constant": true
        },
        {
            "inputs": [
                {
                    "internalType": "uint256",
                    "name": "index",
                    "type": "uint256"
                }
            ],
            "name": "tokenByIndex",
            "outputs": [
                {
                    "internalType": "uint256",
                    "name": "",
                    "type": "uint256"
                }
            ],
            "stateMutability": "view",
            "type": "function",
            "constant": true
        },
        {
            "inputs": [
                {
                    "internalType": "address",
                    "name": "owner",
                    "type": "address"
                },
                {
                    "internalType": "uint256",
                    "name": "index",
                    "type": "uint256"
                }
            ],
            "name": "tokenOfOwnerByIndex",
            "outputs": [
                {
                    "internalType": "uint256",
                    "name": "",
                    "type": "uint256"
                }
            ],
            "stateMutability": "view",
            "type": "function",
            "constant": true
        },
        {
            "inputs": [],
            "name": "totalSupply",
            "outputs": [
                {
                    "internalType": "uint256",
                    "name": "",
                    "type": "uint256"
                }
            ],
            "stateMutability": "view",
            "type": "function",
            "constant": true
        },
        {
            "inputs": [
                {
                    "internalType": "address",
                    "name": "from",
                    "type": "address"
                },
                {
                    "internalType": "address",
                    "name": "to",
                    "type": "address"
                },
                {
                    "internalType": "uint256",
                    "name": "tokenId",
                    "type": "uint256"
                }
            ],
            "name": "transferFrom",
            "outputs": [],
            "stateMutability": "nonpayable",
            "type": "function"
        },
        {
            "inputs": [
                {
                    "internalType": "address",
                    "name": "newOwner",
                    "type": "address"
                }
            ],
            "name": "transferOwnership",
            "outputs": [],
            "stateMutability": "nonpayable",
            "type": "function"
        },
        {
            "inputs": [],
            "name": "totalMint",
            "outputs": [
                {
                    "internalType": "uint256",
                    "name": "",
                    "type": "uint256"
                }
            ],
            "stateMutability": "view",
            "type": "function",
            "constant": true
        },
        {
            "inputs": [],
            "name": "reserveTokens",
            "outputs": [],
            "stateMutability": "nonpayable",
            "type": "function"
        },
        {
            "inputs": [
                {
                    "internalType": "uint256",
                    "name": "_count",
                    "type": "uint256"
                }
            ],
            "name": "mint",
            "outputs": [],
            "stateMutability": "payable",
            "type": "function",
            "payable": true
        },
        {
            "inputs": [
                {
                    "internalType": "uint256",
                    "name": "_count",
                    "type": "uint256"
                }
            ],
            "name": "presaleMint",
            "outputs": [],
            "stateMutability": "payable",
            "type": "function",
            "payable": true
        },
        {
            "inputs": [
                {
                    "internalType": "address[]",
                    "name": "winners",
                    "type": "address[]"
                }
            ],
            "name": "airdropNFT",
            "outputs": [],
            "stateMutability": "nonpayable",
            "type": "function"
        },
        {
            "inputs": [
                {
                    "internalType": "uint256",
                    "name": "_count",
                    "type": "uint256"
                }
            ],
            "name": "salePrice",
            "outputs": [
                {
                    "internalType": "uint256",
                    "name": "",
                    "type": "uint256"
                }
            ],
            "stateMutability": "view",
            "type": "function",
            "constant": true
        },
        {
            "inputs": [
                {
                    "internalType": "uint256",
                    "name": "_count",
                    "type": "uint256"
                }
            ],
            "name": "presalePrice",
            "outputs": [
                {
                    "internalType": "uint256",
                    "name": "",
                    "type": "uint256"
                }
            ],
            "stateMutability": "view",
            "type": "function",
            "constant": true
        },
        {
            "inputs": [
                {
                    "internalType": "string",
                    "name": "baseURI",
                    "type": "string"
                }
            ],
            "name": "setBaseURI",
            "outputs": [],
            "stateMutability": "nonpayable",
            "type": "function"
        },
        {
            "inputs": [
                {
                    "internalType": "uint256",
                    "name": "tokenId",
                    "type": "uint256"
                }
            ],
            "name": "tokenURI",
            "outputs": [
                {
                    "internalType": "string",
                    "name": "",
                    "type": "string"
                }
            ],
            "stateMutability": "view",
            "type": "function",
            "constant": true
        },
        {
            "inputs": [
                {
                    "internalType": "address",
                    "name": "_owner",
                    "type": "address"
                }
            ],
            "name": "walletOfOwner",
            "outputs": [
                {
                    "internalType": "uint256[]",
                    "name": "",
                    "type": "uint256[]"
                }
            ],
            "stateMutability": "view",
            "type": "function",
            "constant": true
        },
        {
            "inputs": [
                {
                    "internalType": "bool",
                    "name": "_isPresaleOpen",
                    "type": "bool"
                }
            ],
            "name": "setPresaleOpen",
            "outputs": [],
            "stateMutability": "nonpayable",
            "type": "function"
        },
        {
            "inputs": [
                {
                    "internalType": "bool",
                    "name": "_isSaleOpen",
                    "type": "bool"
                }
            ],
            "name": "setSaleOpen",
            "outputs": [],
            "stateMutability": "nonpayable",
            "type": "function"
        },
        {
            "inputs": [],
            "name": "pauseMinting",
            "outputs": [],
            "stateMutability": "nonpayable",
            "type": "function"
        },
        {
            "inputs": [],
            "name": "resumeMinting",
            "outputs": [],
            "stateMutability": "nonpayable",
            "type": "function"
        },
        {
            "inputs": [
                {
                    "internalType": "uint256",
                    "name": "_price",
                    "type": "uint256"
                }
            ],
            "name": "setPresalePrice",
            "outputs": [],
            "stateMutability": "nonpayable",
            "type": "function"
        },
        {
            "inputs": [
                {
                    "internalType": "uint256",
                    "name": "_price",
                    "type": "uint256"
                }
            ],
            "name": "setSalePrice",
            "outputs": [],
            "stateMutability": "nonpayable",
            "type": "function"
        },
        {
            "inputs": [],
            "name": "revealCollection",
            "outputs": [],
            "stateMutability": "nonpayable",
            "type": "function"
        },
        {
            "inputs": [
                {
                    "internalType": "address[]",
                    "name": "addresses",
                    "type": "address[]"
                }
            ],
            "name": "addToWhiteList",
            "outputs": [],
            "stateMutability": "nonpayable",
            "type": "function"
        },
        {
            "inputs": [
                {
                    "internalType": "address",
                    "name": "addr",
                    "type": "address"
                }
            ],
            "name": "addressInWhitelist",
            "outputs": [
                {
                    "internalType": "bool",
                    "name": "",
                    "type": "bool"
                }
            ],
            "stateMutability": "view",
            "type": "function",
            "constant": true
        },
        {
            "inputs": [
                {
                    "internalType": "uint256",
                    "name": "number",
                    "type": "uint256"
                },
                {
                    "internalType": "bool",
                    "name": "isWinner",
                    "type": "bool"
                }
            ],
            "name": "setLotteryWinners",
            "outputs": [],
            "stateMutability": "nonpayable",
            "type": "function"
        },
        {
            "inputs": [
                {
                    "internalType": "uint256",
                    "name": "number",
                    "type": "uint256"
                }
            ],
            "name": "isLotteryWinner",
            "outputs": [
                {
                    "internalType": "bool",
                    "name": "",
                    "type": "bool"
                }
            ],
            "stateMutability": "view",
            "type": "function",
            "constant": true
        },
        {
            "inputs": [
                {
                    "internalType": "address[]",
                    "name": "addresses",
                    "type": "address[]"
                }
            ],
            "name": "removeFromWhiteList",
            "outputs": [],
            "stateMutability": "nonpayable",
            "type": "function"
        },
        {
            "inputs": [
                {
                    "internalType": "uint256",
                    "name": "_count",
                    "type": "uint256"
                }
            ],
            "name": "setReserveAtATime",
            "outputs": [],
            "stateMutability": "nonpayable",
            "type": "function"
        },
        {
            "inputs": [
                {
                    "internalType": "uint256",
                    "name": "_newCount",
                    "type": "uint256"
                }
            ],
            "name": "setMaxReserveCount",
            "outputs": [],
            "stateMutability": "nonpayable",
            "type": "function"
        },
        {
            "inputs": [],
            "name": "withdrawAll",
            "outputs": [],
            "stateMutability": "nonpayable",
            "type": "function"
        }
    ],
    "bytecode": "0x6701bc16d674ec8000600c5567010a741a46278000600d556014600e55600f805463ffffffff1916905561010060405260436080818152906200384f60a03980516200005491601091602090910190620001f7565b506000601355601480553480156200006b57600080fd5b5060405162003892380380620038928339810160408190526200008e91620002b3565b60408051808201825260118152702a3432902137b9b9bc9026b0b93a34b0b760791b602080830191825283518085019094526005845264424f53535960d81b908401528151919291620000e491600091620001f7565b508051620000fa906001906020840190620001f7565b50505062000117620001116200012960201b60201c565b6200012d565b62000122816200017f565b50620003cc565b3390565b600a80546001600160a01b038381166001600160a01b0319831681179093556040519116919082907f8be0079c531659141344cd1fd0a4f28419497f9722a3daafe3b4186f6b6457e090600090a35050565b600a546001600160a01b03163314620001de5760405162461bcd60e51b815260206004820181905260248201527f4f776e61626c653a2063616c6c6572206973206e6f7420746865206f776e6572604482015260640160405180910390fd5b8051620001f3906016906020840190620001f7565b5050565b82805462000205906200038f565b90600052602060002090601f01602090048101928262000229576000855562000274565b82601f106200024457805160ff191683800117855562000274565b8280016001018555821562000274579182015b828111156200027457825182559160200191906001019062000257565b506200028292915062000286565b5090565b5b8082111562000282576000815560010162000287565b634e487b7160e01b600052604160045260246000fd5b60006020808385031215620002c757600080fd5b82516001600160401b0380821115620002df57600080fd5b818501915085601f830112620002f457600080fd5b8151818111156200030957620003096200029d565b604051601f8201601f19908116603f011681019083821181831017156200033457620003346200029d565b8160405282815288868487010111156200034d57600080fd5b600093505b8284101562000371578484018601518185018701529285019262000352565b82841115620003835760008684830101525b98975050505050505050565b600181811c90821680620003a457607f821691505b60208210811415620003c657634e487b7160e01b600052602260045260246000fd5b50919050565b61347380620003dc6000396000f3fe6080604052600436106103505760003560e01c80636352211e116101c6578063b187bd26116100f7578063df7787a411610095578063edf85f511161006f578063edf85f511461093c578063f2fde38b1461095c578063f5b966211461097c578063f6c9d9e31461099c57600080fd5b8063df7787a414610695578063e985e9c5146108d9578063eb4f847b1461092257600080fd5b8063c87b56dd116100d1578063c87b56dd1461087c578063c9b298f11461089c578063d547cfb7146108af578063da8fbf2a146108c457600080fd5b8063b187bd261461081c578063b88d4fde1461083c578063c0c773d11461085c57600080fd5b80638d859f3e11610164578063a0712d681161013e578063a0712d68146107a9578063a22cb465146107bc578063af979f25146107dc578063b11560c5146107fc57600080fd5b80638d859f3e146107605780638da5cb5b1461077657806395d89b411461079457600080fd5b8063740d73f3116101a0578063740d73f31461071557806376500c1714610735578063853828b61461074b5780638ad5de281461069557600080fd5b80636352211e146106c057806370a08231146106e0578063715018a61461070057600080fd5b80633f5dc6e5116102a057806354214f691161023e57806359ae340e1161021857806359ae340e146106605780635bc00f41146106755780635dc0e8351461069557806362dc6e21146106aa57600080fd5b806354214f691461060a57806355f804b31461062b57806359a7715a1461064b57600080fd5b806342842e0e1161027a57806342842e0e1461057d578063438b63001461059d57806343d9d6d1146105ca5780634f6ccce7146105ea57600080fd5b80633f5dc6e51461050f57806340d0b4a914610548578063417d65511461055d57600080fd5b80631919fed71161030d57806327ac36c4116102e757806327ac36c4146104a45780632f745c59146104b95780633502a716146104d95780633549345e146104ef57600080fd5b80631919fed7146104455780631a0813301461046557806323b872dd1461048457600080fd5b806301ffc9a71461035557806306fdde031461038a578063081812fc146103ac578063095ea7b3146103e457806318160ddd146104065780631875d21a14610425575b600080fd5b34801561036157600080fd5b50610375610370366004612c0d565b6109bc565b60405190151581526020015b60405180910390f35b34801561039657600080fd5b5061039f6109e7565b6040516103819190612c82565b3480156103b857600080fd5b506103cc6103c7366004612c95565b610a79565b6040516001600160a01b039091168152602001610381565b3480156103f057600080fd5b506104046103ff366004612cc5565b610b13565b005b34801561041257600080fd5b506008545b604051908152602001610381565b34801561043157600080fd5b50610417610440366004612c95565b610c29565b34801561045157600080fd5b50610404610460366004612c95565b610c39565b34801561047157600080fd5b50600f5461037590610100900460ff1681565b34801561049057600080fd5b5061040461049f366004612cef565b610c68565b3480156104b057600080fd5b50610404610c99565b3480156104c557600080fd5b506104176104d4366004612cc5565b610d5b565b3480156104e557600080fd5b506104176107d081565b3480156104fb57600080fd5b5061040461050a366004612c95565b610df1565b34801561051b57600080fd5b5061037561052a366004612d2b565b6001600160a01b031660009081526011602052604090205460ff1690565b34801561055457600080fd5b50610404610e20565b34801561056957600080fd5b50610404610578366004612c95565b610e5f565b34801561058957600080fd5b50610404610598366004612cef565b610e8e565b3480156105a957600080fd5b506105bd6105b8366004612d2b565b610ea9565b6040516103819190612d46565b3480156105d657600080fd5b506103756105e5366004612c95565b610f4b565b3480156105f657600080fd5b50610417610605366004612c95565b610f83565b34801561061657600080fd5b50600f54610375906301000000900460ff1681565b34801561063757600080fd5b50610404610646366004612e29565b611016565b34801561065757600080fd5b50610417611057565b34801561066c57600080fd5b50610404611066565b34801561068157600080fd5b50610404610690366004612e72565b61109e565b3480156106a157600080fd5b50610417601481565b3480156106b657600080fd5b50610417600d5481565b3480156106cc57600080fd5b506103cc6106db366004612c95565b611174565b3480156106ec57600080fd5b506104176106fb366004612d2b565b6111eb565b34801561070c57600080fd5b50610404611272565b34801561072157600080fd5b50610404610730366004612f1f565b6112a8565b34801561074157600080fd5b50610417600e5481565b34801561075757600080fd5b50610404611461565b34801561076c57600080fd5b50610417600c5481565b34801561078257600080fd5b50600a546001600160a01b03166103cc565b3480156107a057600080fd5b5061039f6114b1565b6104046107b7366004612c95565b6114c0565b3480156107c857600080fd5b506104046107d7366004612fa4565b611710565b3480156107e857600080fd5b506104046107f7366004612fd7565b6117d5565b34801561080857600080fd5b50610404610817366004612f1f565b611819565b34801561082857600080fd5b50600f546103759062010000900460ff1681565b34801561084857600080fd5b50610404610857366004612ff2565b61192a565b34801561086857600080fd5b5061040461087736600461306e565b611962565b34801561088857600080fd5b5061039f610897366004612c95565b611a98565b6104046108aa366004612c95565b611bba565b3480156108bb57600080fd5b5061039f611eda565b3480156108d057600080fd5b50610404611f68565b3480156108e557600080fd5b506103756108f4366004613091565b6001600160a01b03918216600090815260056020908152604080832093909416825291909152205460ff1690565b34801561092e57600080fd5b50600f546103759060ff1681565b34801561094857600080fd5b50610417610957366004612c95565b611fa5565b34801561096857600080fd5b50610404610977366004612d2b565b611fb5565b34801561098857600080fd5b50610404610997366004612fd7565b61204d565b3480156109a857600080fd5b506104046109b7366004612c95565b61208a565b60006001600160e01b0319821663780e9d6360e01b14806109e157506109e1826120b9565b92915050565b6060600080546109f6906130bb565b80601f0160208091040260200160405190810160405280929190818152602001828054610a22906130bb565b8015610a6f5780601f10610a4457610100808354040283529160200191610a6f565b820191906000526020600020905b815481529060010190602001808311610a5257829003601f168201915b5050505050905090565b6000818152600260205260408120546001600160a01b0316610af75760405162461bcd60e51b815260206004820152602c60248201527f4552433732313a20617070726f76656420717565727920666f72206e6f6e657860448201526b34b9ba32b73a103a37b5b2b760a11b60648201526084015b60405180910390fd5b506000908152600460205260409020546001600160a01b031690565b6000610b1e82611174565b9050806001600160a01b0316836001600160a01b03161415610b8c5760405162461bcd60e51b815260206004820152602160248201527f4552433732313a20617070726f76616c20746f2063757272656e74206f776e656044820152603960f91b6064820152608401610aee565b336001600160a01b0382161480610ba85750610ba881336108f4565b610c1a5760405162461bcd60e51b815260206004820152603860248201527f4552433732313a20617070726f76652063616c6c6572206973206e6f74206f7760448201527f6e6572206e6f7220617070726f76656420666f7220616c6c00000000000000006064820152608401610aee565b610c248383612109565b505050565b600d546000906109e19083612177565b600a546001600160a01b03163314610c635760405162461bcd60e51b8152600401610aee906130f6565b600c55565b610c72338261218a565b610c8e5760405162461bcd60e51b8152600401610aee9061312b565b610c24838383612281565b600a546001600160a01b03163314610cc35760405162461bcd60e51b8152600401610aee906130f6565b600e54601454601354610cd69190613192565b1115610d1b5760405162461bcd60e51b815260206004820152601460248201527313585e081c995cd95c9d9948195e18d95959195960621b6044820152606401610aee565b60005b601454811015610d585760138054906000610d38836131aa565b9190505550610d463361242c565b80610d50816131aa565b915050610d1e565b50565b6000610d66836111eb565b8210610dc85760405162461bcd60e51b815260206004820152602b60248201527f455243373231456e756d657261626c653a206f776e657220696e646578206f7560448201526a74206f6620626f756e647360a81b6064820152608401610aee565b506001600160a01b03919091166000908152600660209081526040808320938352929052205490565b600a546001600160a01b03163314610e1b5760405162461bcd60e51b8152600401610aee906130f6565b600d55565b600a546001600160a01b03163314610e4a5760405162461bcd60e51b8152600401610aee906130f6565b600f805463ff00000019166301000000179055565b600a546001600160a01b03163314610e895760405162461bcd60e51b8152600401610aee906130f6565b600e55565b610c248383836040518060200160405280600081525061192a565b60606000610eb6836111eb565b905060008167ffffffffffffffff811115610ed357610ed3612d8a565b604051908082528060200260200182016040528015610efc578160200160208202803683370190505b50905060005b82811015610f4357610f148582610d5b565b828281518110610f2657610f266131c5565b602090810291909101015280610f3b816131aa565b915050610f02565b509392505050565b600f546000906301000000900460ff1615610f76575060009081526015602052604090205460ff1690565b506000919050565b919050565b6000610f8e60085490565b8210610ff15760405162461bcd60e51b815260206004820152602c60248201527f455243373231456e756d657261626c653a20676c6f62616c20696e646578206f60448201526b7574206f6620626f756e647360a01b6064820152608401610aee565b60088281548110611004576110046131c5565b90600052602060002001549050919050565b600a546001600160a01b031633146110405760405162461bcd60e51b8152600401610aee906130f6565b8051611053906016906020840190612b5e565b5050565b600061106161247f565b905090565b600a546001600160a01b031633146110905760405162461bcd60e51b8152600401610aee906130f6565b600f805462ff000019169055565b600a546001600160a01b031633146110c85760405162461bcd60e51b8152600401610aee906130f6565b60008151116111345760405162461bcd60e51b815260206004820152603260248201527f506c656173652070726f7669646520746865206c697374206f662077616c6c656044820152710747320666f72207468652061697264726f760741b6064820152608401610aee565b60005b815181101561105357611162828281518110611155576111556131c5565b602002602001015161242c565b8061116c816131aa565b915050611137565b6000818152600260205260408120546001600160a01b0316806109e15760405162461bcd60e51b815260206004820152602960248201527f4552433732313a206f776e657220717565727920666f72206e6f6e657869737460448201526832b73a103a37b5b2b760b91b6064820152608401610aee565b60006001600160a01b0382166112565760405162461bcd60e51b815260206004820152602a60248201527f4552433732313a2062616c616e636520717565727920666f7220746865207a65604482015269726f206164647265737360b01b6064820152608401610aee565b506001600160a01b031660009081526003602052604090205490565b600a546001600160a01b0316331461129c5760405162461bcd60e51b8152600401610aee906130f6565b6112a6600061248a565b565b600a546001600160a01b031633146112d25760405162461bcd60e51b8152600401610aee906130f6565b60005b81811015610c245760008383838181106112f1576112f16131c5565b90506020020160208101906113069190612d2b565b6001600160a01b031614156113525760405162461bcd60e51b8152602060048201526012602482015271139d5b1b081859191c995cdcc8199bdd5b9960721b6044820152606401610aee565b60016011600085858581811061136a5761136a6131c5565b905060200201602081019061137f9190612d2b565b6001600160a01b0316815260208101919091526040016000908120805460ff1916921515929092179091556012818585858181106113bf576113bf6131c5565b90506020020160208101906113d49190612d2b565b6001600160a01b03166001600160a01b03168152602001908152602001600020541161140157600061144e565b60126000848484818110611417576114176131c5565b905060200201602081019061142c9190612d2b565b6001600160a01b03166001600160a01b03168152602001908152602001600020545b5080611459816131aa565b9150506112d5565b600a546001600160a01b0316331461148b5760405162461bcd60e51b8152600401610aee906130f6565b478061149657600080fd5b610d586114ab600a546001600160a01b031690565b826124dc565b6060600180546109f6906130bb565b600a546001600160a01b0316331461151c57600f54610100900460ff1661151c5760405162461bcd60e51b815260206004820152601060248201526f29b0b6329034b9903737ba1037b832b760811b6044820152606401610aee565b600061152661247f565b90506107d06115358383613192565b111561156f5760405162461bcd60e51b815260206004820152600960248201526813585e081b1a5b5a5d60ba1b6044820152606401610aee565b6107d08111156115915760405162461bcd60e51b8152600401610aee906131db565b60148211156115d35760405162461bcd60e51b815260206004820152600e60248201526d22bc31b2b2b23990373ab6b132b960911b6044820152606401610aee565b600f5462010000900460ff161561161e5760405162461bcd60e51b815260206004820152600f60248201526e29b0b6329034b9902830bab9b2b21760891b6044820152606401610aee565b60148261162a336111eb565b6116349190613192565b11156116825760405162461bcd60e51b815260206004820181905260248201527f45786365656473204e4654277320616c6c6f776564207065722077616c6c65746044820152606401610aee565b61168b82611fa5565b3410156116ce5760405162461bcd60e51b815260206004820152601160248201527056616c75652062656c6f7720707269636560781b6044820152606401610aee565b60005b828110156116f4576116e23361242c565b806116ec816131aa565b9150506116d1565b5061105361170a600a546001600160a01b031690565b476124dc565b6001600160a01b0382163314156117695760405162461bcd60e51b815260206004820152601960248201527f4552433732313a20617070726f766520746f2063616c6c6572000000000000006044820152606401610aee565b3360008181526005602090815260408083206001600160a01b03871680855290835292819020805460ff191686151590811790915590519081529192917f17307eab39ab6107e8899845ad3d59bd9653f200f220920489ca2b5937696c31910160405180910390a35050565b600a546001600160a01b031633146117ff5760405162461bcd60e51b8152600401610aee906130f6565b600f80549115156101000261ff0019909216919091179055565b600a546001600160a01b031633146118435760405162461bcd60e51b8152600401610aee906130f6565b60005b81811015610c24576000838383818110611862576118626131c5565b90506020020160208101906118779190612d2b565b6001600160a01b031614156118c35760405162461bcd60e51b8152602060048201526012602482015271139d5b1b081859191c995cdcc8199bdd5b9960721b6044820152606401610aee565b6000601160008585858181106118db576118db6131c5565b90506020020160208101906118f09190612d2b565b6001600160a01b031681526020810191909152604001600020805460ff191691151591909117905580611922816131aa565b915050611846565b611934338361218a565b6119505760405162461bcd60e51b8152600401610aee9061312b565b61195c84848484612512565b50505050565b600a546001600160a01b0316331461198c5760405162461bcd60e51b8152600401610aee906130f6565b600f54610100900460ff16156119f85760405162461bcd60e51b815260206004820152602b60248201527f53616c6520686173207374617274656420796f752063616e206e6f742063686160448201526a6e67652077696e6e65727360a81b6064820152608401610aee565b600f5460ff1615611a615760405162461bcd60e51b815260206004820152602d60248201527f50726573616c6520686173207374617274656420796f752063616e6e6f74206360448201526c68616e67652077696e6e65727360981b6064820152608401610aee565b600f546301000000900460ff1615611a7857600080fd5b600091825260156020526040909120805460ff1916911515919091179055565b6000818152600260205260409020546060906001600160a01b0316611b175760405162461bcd60e51b815260206004820152602f60248201527f4552433732314d657461646174613a2055524920717565727920666f72206e6f60448201526e3732bc34b9ba32b73a103a37b5b2b760891b6064820152608401610aee565b604080518082019091526005815264173539b7b760d91b602082015282906000611b3f612545565b600f549091506301000000900460ff1615611ba8576000815111611b725760405180602001604052806000815250611b9f565b80611b7c84612554565b83604051602001611b8f9392919061321f565b6040516020818303038152906040525b95945050505050565b6010604051602001611b8f9190613262565b600f5460ff16611c025760405162461bcd60e51b8152602060048201526013602482015272283932b9b0b6329034b9903737ba1037b832b760691b6044820152606401610aee565b3360009081526011602052604090205460ff16611c615760405162461bcd60e51b815260206004820152601860248201527f596f7520617265206e6f7420696e2077686974656c69737400000000000000006044820152606401610aee565b6014811115611cb25760405162461bcd60e51b815260206004820152601960248201527f496e636f727265637420616d6f756e7420746f20636c61696d000000000000006044820152606401610aee565b33600090815260126020526040902054601490611cd0908390613192565b1115611d1e5760405162461bcd60e51b815260206004820152601c60248201527f50757263686173652065786365656473206d617820616c6c6f776564000000006044820152606401610aee565b601481611d2a336111eb565b611d349190613192565b1115611d825760405162461bcd60e51b815260206004820181905260248201527f45786365656473204e4654277320616c6c6f776564207065722077616c6c65746044820152606401610aee565b6000611d8c61247f565b90506107d0611d9b8383613192565b1115611dd55760405162461bcd60e51b815260206004820152600960248201526813585e081b1a5b5a5d60ba1b6044820152606401610aee565b6107d0811115611df75760405162461bcd60e51b8152600401610aee906131db565b611e0082610c29565b341015611e435760405162461bcd60e51b815260206004820152601160248201527056616c75652062656c6f7720707269636560781b6044820152606401610aee565b600f5462010000900460ff1615611e8e5760405162461bcd60e51b815260206004820152600f60248201526e29b0b6329034b9902830bab9b2b21760891b6044820152606401610aee565b60005b828110156116f457336000908152601260205260408120805460019290611eb9908490613192565b90915550611ec890503361242c565b80611ed2816131aa565b915050611e91565b60168054611ee7906130bb565b80601f0160208091040260200160405190810160405280929190818152602001828054611f13906130bb565b8015611f605780601f10611f3557610100808354040283529160200191611f60565b820191906000526020600020905b815481529060010190602001808311611f4357829003601f168201915b505050505081565b600a546001600160a01b03163314611f925760405162461bcd60e51b8152600401610aee906130f6565b600f805462ff0000191662010000179055565b600c546000906109e19083612177565b600a546001600160a01b03163314611fdf5760405162461bcd60e51b8152600401610aee906130f6565b6001600160a01b0381166120445760405162461bcd60e51b815260206004820152602660248201527f4f776e61626c653a206e6577206f776e657220697320746865207a65726f206160448201526564647265737360d01b6064820152608401610aee565b610d588161248a565b600a546001600160a01b031633146120775760405162461bcd60e51b8152600401610aee906130f6565b600f805460ff1916911515919091179055565b600a546001600160a01b031633146120b45760405162461bcd60e51b8152600401610aee906130f6565b601455565b60006001600160e01b031982166380ac58cd60e01b14806120ea57506001600160e01b03198216635b5e139f60e01b145b806109e157506301ffc9a760e01b6001600160e01b03198316146109e1565b600081815260046020526040902080546001600160a01b0319166001600160a01b038416908117909155819061213e82611174565b6001600160a01b03167f8c5be1e5ebec7d5bd14f71427d1e84f3dd0314c0f7b2291e5b200ac8c7c3b92560405160405180910390a45050565b600061218382846132fe565b9392505050565b6000818152600260205260408120546001600160a01b03166122035760405162461bcd60e51b815260206004820152602c60248201527f4552433732313a206f70657261746f7220717565727920666f72206e6f6e657860448201526b34b9ba32b73a103a37b5b2b760a11b6064820152608401610aee565b600061220e83611174565b9050806001600160a01b0316846001600160a01b031614806122495750836001600160a01b031661223e84610a79565b6001600160a01b0316145b8061227957506001600160a01b0380821660009081526005602090815260408083209388168352929052205460ff165b949350505050565b826001600160a01b031661229482611174565b6001600160a01b0316146122fc5760405162461bcd60e51b815260206004820152602960248201527f4552433732313a207472616e73666572206f6620746f6b656e2074686174206960448201526839903737ba1037bbb760b91b6064820152608401610aee565b6001600160a01b03821661235e5760405162461bcd60e51b8152602060048201526024808201527f4552433732313a207472616e7366657220746f20746865207a65726f206164646044820152637265737360e01b6064820152608401610aee565b61236983838361267d565b612374600082612109565b6001600160a01b038316600090815260036020526040812080546001929061239d90849061331d565b90915550506001600160a01b03821660009081526003602052604081208054600192906123cb908490613192565b909155505060008181526002602052604080822080546001600160a01b0319166001600160a01b0386811691821790925591518493918716917fddf252ad1be2c89b69c2b068fc378daa952ba7f163c4a11628f55a4df523b3ef91a4505050565b600061243661247f565b9050612446600b80546001019055565b6124508282612735565b60405181907f9e62c5dba1161e03d55b0b7b6cd3d7871c9fdd11f86700bd61314d7f9831e5ad90600090a25050565b6000611061600b5490565b600a80546001600160a01b038381166001600160a01b0319831681179093556040519116919082907f8be0079c531659141344cd1fd0a4f28419497f9722a3daafe3b4186f6b6457e090600090a35050565b6040516001600160a01b0383169082156108fc029083906000818181858888f19350505050158015610c24573d6000803e3d6000fd5b61251d848484612281565b6125298484848461274f565b61195c5760405162461bcd60e51b8152600401610aee90613334565b6060601680546109f6906130bb565b6060816125785750506040805180820190915260018152600360fc1b602082015290565b8160005b81156125a2578061258c816131aa565b915061259b9050600a83613386565b915061257c565b60008167ffffffffffffffff8111156125bd576125bd612d8a565b6040519080825280601f01601f1916602001820160405280156125e7576020820181803683370190505b509050815b8515612674576125fd60018261331d565b9050600061260c600a88613386565b61261790600a6132fe565b612621908861331d565b61262c9060306133a8565b905060008160f81b905080848481518110612649576126496131c5565b60200101906001600160f81b031916908160001a90535061266b600a89613386565b975050506125ec565b50949350505050565b6001600160a01b0383166126d8576126d381600880546000838152600960205260408120829055600182018355919091527ff3f7a9fe364faab93b216da50a3214154f22a0a2b415b23a84c8169e8b636ee30155565b6126fb565b816001600160a01b0316836001600160a01b0316146126fb576126fb838261284d565b6001600160a01b03821661271257610c24816128ea565b826001600160a01b0316826001600160a01b031614610c2457610c248282612999565b6110538282604051806020016040528060008152506129dd565b60006001600160a01b0384163b1561284257604051630a85bd0160e11b81526001600160a01b0385169063150b7a02906127939033908990889088906004016133cd565b6020604051808303816000875af19250505080156127ce575060408051601f3d908101601f191682019092526127cb9181019061340a565b60015b612828573d8080156127fc576040519150601f19603f3d011682016040523d82523d6000602084013e612801565b606091505b5080516128205760405162461bcd60e51b8152600401610aee90613334565b805181602001fd5b6001600160e01b031916630a85bd0160e11b149050612279565b506001949350505050565b6000600161285a846111eb565b612864919061331d565b6000838152600760205260409020549091508082146128b7576001600160a01b03841660009081526006602090815260408083208584528252808320548484528184208190558352600790915290208190555b5060009182526007602090815260408084208490556001600160a01b039094168352600681528383209183525290812055565b6008546000906128fc9060019061331d565b60008381526009602052604081205460088054939450909284908110612924576129246131c5565b906000526020600020015490508060088381548110612945576129456131c5565b600091825260208083209091019290925582815260099091526040808220849055858252812055600880548061297d5761297d613427565b6001900381819060005260206000200160009055905550505050565b60006129a4836111eb565b6001600160a01b039093166000908152600660209081526040808320868452825280832085905593825260079052919091209190915550565b6129e78383612a10565b6129f4600084848461274f565b610c245760405162461bcd60e51b8152600401610aee90613334565b6001600160a01b038216612a665760405162461bcd60e51b815260206004820181905260248201527f4552433732313a206d696e7420746f20746865207a65726f20616464726573736044820152606401610aee565b6000818152600260205260409020546001600160a01b031615612acb5760405162461bcd60e51b815260206004820152601c60248201527f4552433732313a20746f6b656e20616c7265616479206d696e746564000000006044820152606401610aee565b612ad76000838361267d565b6001600160a01b0382166000908152600360205260408120805460019290612b00908490613192565b909155505060008181526002602052604080822080546001600160a01b0319166001600160a01b03861690811790915590518392907fddf252ad1be2c89b69c2b068fc378daa952ba7f163c4a11628f55a4df523b3ef908290a45050565b828054612b6a906130bb565b90600052602060002090601f016020900481019282612b8c5760008555612bd2565b82601f10612ba557805160ff1916838001178555612bd2565b82800160010185558215612bd2579182015b82811115612bd2578251825591602001919060010190612bb7565b50612bde929150612be2565b5090565b5b80821115612bde5760008155600101612be3565b6001600160e01b031981168114610d5857600080fd5b600060208284031215612c1f57600080fd5b813561218381612bf7565b60005b83811015612c45578181015183820152602001612c2d565b8381111561195c5750506000910152565b60008151808452612c6e816020860160208601612c2a565b601f01601f19169290920160200192915050565b6020815260006121836020830184612c56565b600060208284031215612ca757600080fd5b5035919050565b80356001600160a01b0381168114610f7e57600080fd5b60008060408385031215612cd857600080fd5b612ce183612cae565b946020939093013593505050565b600080600060608486031215612d0457600080fd5b612d0d84612cae565b9250612d1b60208501612cae565b9150604084013590509250925092565b600060208284031215612d3d57600080fd5b61218382612cae565b6020808252825182820181905260009190848201906040850190845b81811015612d7e57835183529284019291840191600101612d62565b50909695505050505050565b634e487b7160e01b600052604160045260246000fd5b604051601f8201601f1916810167ffffffffffffffff81118282101715612dc957612dc9612d8a565b604052919050565b600067ffffffffffffffff831115612deb57612deb612d8a565b612dfe601f8401601f1916602001612da0565b9050828152838383011115612e1257600080fd5b828260208301376000602084830101529392505050565b600060208284031215612e3b57600080fd5b813567ffffffffffffffff811115612e5257600080fd5b8201601f81018413612e6357600080fd5b61227984823560208401612dd1565b60006020808385031215612e8557600080fd5b823567ffffffffffffffff80821115612e9d57600080fd5b818501915085601f830112612eb157600080fd5b813581811115612ec357612ec3612d8a565b8060051b9150612ed4848301612da0565b8181529183018401918481019088841115612eee57600080fd5b938501935b83851015612f1357612f0485612cae565b82529385019390850190612ef3565b98975050505050505050565b60008060208385031215612f3257600080fd5b823567ffffffffffffffff80821115612f4a57600080fd5b818501915085601f830112612f5e57600080fd5b813581811115612f6d57600080fd5b8660208260051b8501011115612f8257600080fd5b60209290920196919550909350505050565b80358015158114610f7e57600080fd5b60008060408385031215612fb757600080fd5b612fc083612cae565b9150612fce60208401612f94565b90509250929050565b600060208284031215612fe957600080fd5b61218382612f94565b6000806000806080858703121561300857600080fd5b61301185612cae565b935061301f60208601612cae565b925060408501359150606085013567ffffffffffffffff81111561304257600080fd5b8501601f8101871361305357600080fd5b61306287823560208401612dd1565b91505092959194509250565b6000806040838503121561308157600080fd5b82359150612fce60208401612f94565b600080604083850312156130a457600080fd5b6130ad83612cae565b9150612fce60208401612cae565b600181811c908216806130cf57607f821691505b602082108114156130f057634e487b7160e01b600052602260045260246000fd5b50919050565b6020808252818101527f4f776e61626c653a2063616c6c6572206973206e6f7420746865206f776e6572604082015260600190565b60208082526031908201527f4552433732313a207472616e736665722063616c6c6572206973206e6f74206f6040820152701ddb995c881b9bdc88185c1c1c9bdd9959607a1b606082015260800190565b634e487b7160e01b600052601160045260246000fd5b600082198211156131a5576131a561317c565b500190565b60006000198214156131be576131be61317c565b5060010190565b634e487b7160e01b600052603260045260246000fd5b60208082526024908201527f416c6c20426f737379204d61727469616e204e465427732061726520736f6c64604082015263081bdd5d60e21b606082015260800190565b60008451613231818460208901612c2a565b845190830190613245818360208901612c2a565b8451910190613258818360208801612c2a565b0195945050505050565b600080835481600182811c91508083168061327e57607f831692505b602080841082141561329e57634e487b7160e01b86526022600452602486fd5b8180156132b257600181146132c3576132f0565b60ff198616895284890196506132f0565b60008a81526020902060005b868110156132e85781548b8201529085019083016132cf565b505084890196505b509498975050505050505050565b60008160001904831182151516156133185761331861317c565b500290565b60008282101561332f5761332f61317c565b500390565b60208082526032908201527f4552433732313a207472616e7366657220746f206e6f6e20455243373231526560408201527131b2b4bb32b91034b6b83632b6b2b73a32b960711b606082015260800190565b6000826133a357634e487b7160e01b600052601260045260246000fd5b500490565b600060ff821660ff84168060ff038211156133c5576133c561317c565b019392505050565b6001600160a01b038581168252841660208201526040810183905260806060820181905260009061340090830184612c56565b9695505050505050565b60006020828403121561341c57600080fd5b815161218381612bf7565b634e487b7160e01b600052603160045260246000fdfea2646970667358221220fac15dab81cf5eea9349283efa9fd19f2fe072e2cae366a1f6d2723e041af0e264736f6c634300080a003368747470733a2f2f697066732e696f2f697066732f516d5a626d38745768517a745961325a7a31594c5057357a5a6b616168454c6e376d6735724c50755437584e4242",
    "immutableReferences": {},
    "source": "// SPDX-License-Identifier: MIT\r\npragma solidity ^0.8.0;\r\n\r\nimport \"@openzeppelin/contracts/token/ERC721/ERC721.sol\";\r\nimport \"@openzeppelin/contracts/token/ERC721/extensions/ERC721Enumerable.sol\";\r\nimport \"@openzeppelin/contracts/access/Ownable.sol\";\r\nimport \"@openzeppelin/contracts/utils/math/SafeMath.sol\";\r\nimport \"@openzeppelin/contracts/utils/Counters.sol\";\r\n\r\ncontract BossyMartian is ERC721Enumerable, Ownable {\r\n    using SafeMath for uint256;\r\n    using Counters for Counters.Counter;\r\n\r\n    Counters.Counter private _tokenIdTracker;\r\n\r\n    uint256 public constant MAX_ELEMENTS = 2000;\r\n    uint256 public  PRICE = 125 * 10**15; // 0.125 BNB\r\n    uint256 public  PRESALE_PRICE = 75 * 10**15; //0.075 BNB\r\n    uint256 public constant MAX_BY_MINT = 20;\r\n    uint256 public constant MAX_BY_MINT_WHITELIST = 20;\r\n    uint256 public constant MAX_WALLET = 20;\r\n    uint256 public MAX_RESERVE_COUNT = 20;\r\n\r\n    bool public isPresaleOpen = false;\r\n    bool public isSaleOpen = false;\r\n    bool public isPaused = false;\r\n    bool public isRevealed = false;\r\n    string private notRevealedtokenUri =\r\n        \"https://ipfs.io/ipfs/QmZbm8tWhQztYa2Zz1YLPW5zZkaahELn7mg5rLPuT7XNBB\";\r\n    mapping(address => bool) private _whiteList;\r\n    mapping(address => uint256) private _whiteListClaimed;\r\n    uint256 private _reservedCount = 0;\r\n    uint256 private _reserveAtATime = 20;\r\n    mapping(uint256 => bool) private _winners;\r\n\r\n    string public baseTokenURI;\r\n\r\n    event CreateHibernationBear(uint256 indexed id);\r\n\r\n    constructor(string memory baseURI) ERC721(\"The Bossy Martian\", \"BOSSY\") {\r\n        setBaseURI(baseURI);\r\n    }\r\n\r\n    modifier saleIsOpen() {\r\n        if (_msgSender() != owner()) {\r\n            require(isSaleOpen, \"Sale is not open\");\r\n        }\r\n        _;\r\n    }\r\n\r\n    function _totalSupply() internal view returns (uint256) {\r\n        return _tokenIdTracker.current();\r\n    }\r\n\r\n    function totalMint() public view returns (uint256) {\r\n        return _totalSupply();\r\n    }\r\n\r\n    function reserveTokens() public onlyOwner {\r\n        require(\r\n            _reservedCount + _reserveAtATime <= MAX_RESERVE_COUNT,\r\n            \"Max reserve exceeded\"\r\n        );\r\n        uint256 i;\r\n        for (i = 0; i < _reserveAtATime; i++) {\r\n            _reservedCount++;\r\n            _mintAnElement(msg.sender);\r\n        }\r\n    }\r\n\r\n    function mint(uint256 _count) public payable saleIsOpen {\r\n        uint256 total = _totalSupply();\r\n        require(total + _count <= MAX_ELEMENTS, \"Max limit\");\r\n        require(total <= MAX_ELEMENTS, \"All Bossy Martian NFT's are sold out\");\r\n        require(_count <= MAX_BY_MINT, \"Exceeds number\");\r\n        require(!isPaused, \"Sale is Paused.\");\r\n        require(\r\n            balanceOf(_msgSender()) + _count <= MAX_WALLET,\r\n            \"Exceeds NFT's allowed per wallet\"\r\n        );\r\n        require(msg.value >= salePrice(_count), \"Value below price\");\r\n\r\n        for (uint256 i = 0; i < _count; i++) {\r\n            _mintAnElement(_msgSender());\r\n        }\r\n        _withdraw(owner(), address(this).balance);\r\n    }\r\n\r\n    function presaleMint(uint256 _count) public payable {\r\n        require(isPresaleOpen, \"Presale is not open\");\r\n        require(_whiteList[msg.sender], \"You are not in whitelist\");\r\n        require(_count <= MAX_BY_MINT_WHITELIST, \"Incorrect amount to claim\");\r\n        require(\r\n            _whiteListClaimed[msg.sender] + _count <= MAX_BY_MINT_WHITELIST,\r\n            \"Purchase exceeds max allowed\"\r\n        );\r\n        require(\r\n            balanceOf(_msgSender()) + _count <= MAX_WALLET,\r\n            \"Exceeds NFT's allowed per wallet\"\r\n        );\r\n        uint256 total = _totalSupply();\r\n        require(total + _count <= MAX_ELEMENTS, \"Max limit\");\r\n        require(total <= MAX_ELEMENTS, \"All Bossy Martian NFT's are sold out\");\r\n        require(msg.value >= presalePrice(_count), \"Value below price\");\r\n        require(!isPaused, \"Sale is Paused.\");\r\n\r\n        for (uint256 i = 0; i < _count; i++) {\r\n            _whiteListClaimed[msg.sender] += 1;\r\n            _mintAnElement(msg.sender);\r\n        }\r\n        _withdraw(owner(), address(this).balance);\r\n    }\r\n\r\n    function airdropNFT(address[] memory winners) public onlyOwner {\r\n        require(\r\n            winners.length > 0,\r\n            \"Please provide the list of wallets for the airdrop\"\r\n        );\r\n        for (uint256 i = 0; i < winners.length; i++) {\r\n            _mintAnElement(winners[i]);\r\n        }\r\n    }\r\n\r\n    function _mintAnElement(address _to) private {\r\n        uint256 id = _totalSupply();\r\n        _tokenIdTracker.increment();\r\n        _safeMint(_to, id);\r\n        emit CreateHibernationBear(id);\r\n    }\r\n\r\n    function salePrice(uint256 _count) public view returns (uint256) {\r\n        return PRICE.mul(_count);\r\n    }\r\n\r\n    function presalePrice(uint256 _count) public view returns (uint256) {\r\n        return PRESALE_PRICE.mul(_count);\r\n    }\r\n\r\n    function _baseURI() internal view virtual override returns (string memory) {\r\n        return baseTokenURI;\r\n    }\r\n\r\n    function setBaseURI(string memory baseURI) public onlyOwner {\r\n        baseTokenURI = baseURI;\r\n    }\r\n\r\n    function tokenURI(uint256 tokenId)\r\n        public\r\n        view\r\n        virtual\r\n        override\r\n        returns (string memory)\r\n    {\r\n        require(\r\n            _exists(tokenId),\r\n            \"ERC721Metadata: URI query for nonexistent token\"\r\n        );\r\n\r\n        uint256 metaId = tokenId;\r\n        string memory uriSuffix = \".json\";\r\n        string memory currentBaseURI = _baseURI();\r\n\r\n        if (isRevealed) {\r\n            return\r\n                bytes(currentBaseURI).length > 0\r\n                    ? string(\r\n                        abi.encodePacked(\r\n                            currentBaseURI,\r\n                            uint2str(metaId),\r\n                            uriSuffix\r\n                        )\r\n                    )\r\n                    : \"\";\r\n        } else {\r\n            return string(abi.encodePacked(notRevealedtokenUri));\r\n        }\r\n    }\r\n\r\n    function walletOfOwner(address _owner)\r\n        external\r\n        view\r\n        returns (uint256[] memory)\r\n    {\r\n        uint256 tokenCount = balanceOf(_owner);\r\n\r\n        uint256[] memory tokensId = new uint256[](tokenCount);\r\n        for (uint256 i = 0; i < tokenCount; i++) {\r\n            tokensId[i] = tokenOfOwnerByIndex(_owner, i);\r\n        }\r\n\r\n        return tokensId;\r\n    }\r\n\r\n    function setPresaleOpen(bool _isPresaleOpen) external onlyOwner {\r\n        isPresaleOpen = _isPresaleOpen;\r\n    }\r\n\r\n    function setSaleOpen(bool _isSaleOpen) external onlyOwner {\r\n        isSaleOpen = _isSaleOpen;\r\n    }\r\n\r\n    function pauseMinting() external onlyOwner {\r\n        isPaused = true;\r\n    }\r\n\r\n    function resumeMinting() external onlyOwner{\r\n        isPaused = false;\r\n    }\r\n\r\n    function setPresalePrice(uint256 _price) external onlyOwner{\r\n        PRESALE_PRICE = _price;\r\n    }\r\n\r\n    function setSalePrice(uint256 _price)external onlyOwner{\r\n        PRICE = _price;\r\n    }\r\n\r\n    function revealCollection() external onlyOwner {\r\n        isRevealed = true;\r\n    }\r\n\r\n    function addToWhiteList(address[] calldata addresses) external onlyOwner {\r\n        for (uint256 i = 0; i < addresses.length; i++) {\r\n            require(addresses[i] != address(0), \"Null address found\");\r\n\r\n            _whiteList[addresses[i]] = true;\r\n            _whiteListClaimed[addresses[i]] > 0\r\n                ? _whiteListClaimed[addresses[i]]\r\n                : 0;\r\n        }\r\n    }\r\n\r\n    function addressInWhitelist(address addr) external view returns (bool) {\r\n        return _whiteList[addr];\r\n    }\r\n\r\n    function setLotteryWinners(uint256 number, bool isWinner)\r\n        external\r\n        onlyOwner\r\n    {\r\n        require(\r\n            !isSaleOpen,\r\n            \"Sale has started you can not change winners\"\r\n        );\r\n        require(\r\n            !isPresaleOpen,\r\n            \"Presale has started you cannot change winners\"\r\n        );\r\n        require(!isRevealed);\r\n        _winners[number] = isWinner;\r\n    }\r\n\r\n    function isLotteryWinner(uint256 number) public view returns (bool) {\r\n        if (isRevealed) return _winners[number];\r\n        else return false;\r\n    }\r\n\r\n    function removeFromWhiteList(address[] calldata addresses)\r\n        external\r\n        onlyOwner\r\n    {\r\n        for (uint256 i = 0; i < addresses.length; i++) {\r\n            require(addresses[i] != address(0), \"Null address found\");\r\n\r\n            _whiteList[addresses[i]] = false;\r\n        }\r\n    }\r\n\r\n    function setReserveAtATime(uint256 _count) public onlyOwner {\r\n        _reserveAtATime = _count;\r\n    }\r\n\r\n    function setMaxReserveCount(uint256 _newCount) external onlyOwner {\r\n        MAX_RESERVE_COUNT = _newCount;\r\n    }\r\n\r\n    function withdrawAll() external onlyOwner {\r\n        uint256 balance = address(this).balance;\r\n        require(balance > 0);\r\n        _withdraw(owner(), balance);\r\n    }\r\n\r\n    function _withdraw(address _address, uint256 _amount) private {\r\n        payable(_address).transfer(_amount);\r\n    }\r\n\r\n    function uint2str(uint256 _i)\r\n        internal\r\n        pure\r\n        returns (string memory _uintAsString)\r\n    {\r\n        if (_i == 0) {\r\n            return \"0\";\r\n        }\r\n        uint256 j = _i;\r\n        uint256 len;\r\n        while (j != 0) {\r\n            len++;\r\n            j /= 10;\r\n        }\r\n        bytes memory bstr = new bytes(len);\r\n        uint256 k = len;\r\n        while (_i != 0) {\r\n            k = k - 1;\r\n            uint8 temp = (48 + uint8(_i - (_i / 10) * 10));\r\n            bytes1 b1 = bytes1(temp);\r\n            bstr[k] = b1;\r\n            _i /= 10;\r\n        }\r\n        return string(bstr);\r\n    }\r\n}\r\n",
    "sourcePath": "C:\\git\\freelance\\tokens\\contracts\\MarvinNft.sol",
    "compiler": {
        "name": "solc",
        "version": "0.8.10+commit.fc410830.Emscripten.clang"
    },
    "schemaVersion": "3.4.3",
    "updatedAt": "2022-01-30T09:58:49.521Z",
    "networkType": "ethereum",
    "devdoc": {
        "kind": "dev",
        "methods": {
            "approve(address,uint256)": {
                "details": "See {IERC721-approve}."
            },
            "balanceOf(address)": {
                "details": "See {IERC721-balanceOf}."
            },
            "getApproved(uint256)": {
                "details": "See {IERC721-getApproved}."
            },
            "isApprovedForAll(address,address)": {
                "details": "See {IERC721-isApprovedForAll}."
            },
            "name()": {
                "details": "See {IERC721Metadata-name}."
            },
            "owner()": {
                "details": "Returns the address of the current owner."
            },
            "ownerOf(uint256)": {
                "details": "See {IERC721-ownerOf}."
            },
            "renounceOwnership()": {
                "details": "Leaves the contract without owner. It will not be possible to call `onlyOwner` functions anymore. Can only be called by the current owner. NOTE: Renouncing ownership will leave the contract without an owner, thereby removing any functionality that is only available to the owner."
            },
            "safeTransferFrom(address,address,uint256)": {
                "details": "See {IERC721-safeTransferFrom}."
            },
            "safeTransferFrom(address,address,uint256,bytes)": {
                "details": "See {IERC721-safeTransferFrom}."
            },
            "setApprovalForAll(address,bool)": {
                "details": "See {IERC721-setApprovalForAll}."
            },
            "supportsInterface(bytes4)": {
                "details": "See {IERC165-supportsInterface}."
            },
            "symbol()": {
                "details": "See {IERC721Metadata-symbol}."
            },
            "tokenByIndex(uint256)": {
                "details": "See {IERC721Enumerable-tokenByIndex}."
            },
            "tokenOfOwnerByIndex(address,uint256)": {
                "details": "See {IERC721Enumerable-tokenOfOwnerByIndex}."
            },
            "tokenURI(uint256)": {
                "details": "See {IERC721Metadata-tokenURI}."
            },
            "totalSupply()": {
                "details": "See {IERC721Enumerable-totalSupply}."
            },
            "transferFrom(address,address,uint256)": {
                "details": "See {IERC721-transferFrom}."
            },
            "transferOwnership(address)": {
                "details": "Transfers ownership of the contract to a new account (`newOwner`). Can only be called by the current owner."
            }
        },
        "version": 1
    },
    "userdoc": {
        "kind": "user",
        "methods": {},
        "version": 1
    }
}